{
  "address": "0xe7f1725E7734CE288F8367e1Bb143E90bb3F0512",
  "abi": [
    {
      "inputs": [
        {
          "components": [
            {
              "internalType": "uint8",
              "name": "attack",
              "type": "uint8"
            },
            {
              "internalType": "uint8",
              "name": "defense",
              "type": "uint8"
            }
          ],
          "internalType": "struct CardBattle.Token[]",
          "name": "tokensArr",
          "type": "tuple[]"
        },
        {
          "internalType": "address",
          "name": "gameTokensAddress",
          "type": "address"
        }
      ],
      "stateMutability": "nonpayable",
      "type": "constructor"
    },
    {
      "inputs": [],
      "name": "CardBattle__IsPlayerAlready",
      "type": "error"
    },
    {
      "inputs": [],
      "name": "CardBattle__NeedToInitiateBattle",
      "type": "error"
    },
    {
      "inputs": [],
      "name": "CardBattle__NeedToJoinBattles",
      "type": "error"
    },
    {
      "inputs": [],
      "name": "CardBattle__NotPlayer",
      "type": "error"
    },
    {
      "inputs": [],
      "name": "CardBattle__OwnNoCharacter",
      "type": "error"
    },
    {
      "inputs": [],
      "name": "CardBattle__OwnNoSuchTreasure",
      "type": "error"
    },
    {
      "inputs": [],
      "name": "CardBattle__SentOwnerFailed",
      "type": "error"
    },
    {
      "inputs": [],
      "name": "CardBattle__SentWrongValue",
      "type": "error"
    },
    {
      "inputs": [],
      "name": "CardBattle__StatusNotCorrect",
      "type": "error"
    },
    {
      "anonymous": false,
      "inputs": [
        {
          "indexed": true,
          "internalType": "uint256",
          "name": "battleId",
          "type": "uint256"
        },
        {
          "indexed": true,
          "internalType": "address",
          "name": "winner",
          "type": "address"
        },
        {
          "indexed": false,
          "internalType": "uint256",
          "name": "time",
          "type": "uint256"
        }
      ],
      "name": "EndedBattle",
      "type": "event"
    },
    {
      "anonymous": false,
      "inputs": [
        {
          "indexed": true,
          "internalType": "address",
          "name": "previousOwner",
          "type": "address"
        },
        {
          "indexed": true,
          "internalType": "address",
          "name": "newOwner",
          "type": "address"
        }
      ],
      "name": "OwnershipTransferred",
      "type": "event"
    },
    {
      "anonymous": false,
      "inputs": [
        {
          "indexed": true,
          "internalType": "address",
          "name": "playerAddr",
          "type": "address"
        },
        {
          "indexed": false,
          "internalType": "uint256",
          "name": "time",
          "type": "uint256"
        }
      ],
      "name": "RegisteredPlayer",
      "type": "event"
    },
    {
      "anonymous": false,
      "inputs": [
        {
          "indexed": true,
          "internalType": "uint256",
          "name": "battleId",
          "type": "uint256"
        },
        {
          "indexed": true,
          "internalType": "address",
          "name": "player1",
          "type": "address"
        },
        {
          "indexed": true,
          "internalType": "address",
          "name": "player2",
          "type": "address"
        },
        {
          "indexed": false,
          "internalType": "uint256",
          "name": "time",
          "type": "uint256"
        }
      ],
      "name": "StartedBattle",
      "type": "event"
    },
    {
      "anonymous": false,
      "inputs": [
        {
          "indexed": false,
          "internalType": "address",
          "name": "owner",
          "type": "address"
        },
        {
          "indexed": false,
          "internalType": "uint256",
          "name": "balance",
          "type": "uint256"
        },
        {
          "indexed": false,
          "internalType": "uint256",
          "name": "time",
          "type": "uint256"
        }
      ],
      "name": "WithdrewByOwner",
      "type": "event"
    },
    {
      "inputs": [],
      "name": "characterPrice",
      "outputs": [
        {
          "internalType": "uint256",
          "name": "",
          "type": "uint256"
        }
      ],
      "stateMutability": "view",
      "type": "function"
    },
    {
      "inputs": [],
      "name": "gameTokensContract",
      "outputs": [
        {
          "internalType": "contract GameTokens",
          "name": "",
          "type": "address"
        }
      ],
      "stateMutability": "view",
      "type": "function"
    },
    {
      "inputs": [
        {
          "internalType": "uint256",
          "name": "battleId",
          "type": "uint256"
        }
      ],
      "name": "getBattle",
      "outputs": [
        {
          "components": [
            {
              "components": [
                {
                  "internalType": "address",
                  "name": "playerAddr",
                  "type": "address"
                },
                {
                  "internalType": "uint8",
                  "name": "health",
                  "type": "uint8"
                },
                {
                  "internalType": "uint8",
                  "name": "energy",
                  "type": "uint8"
                },
                {
                  "internalType": "uint256[3]",
                  "name": "battleTokens",
                  "type": "uint256[3]"
                },
                {
                  "internalType": "uint8",
                  "name": "battleAttack",
                  "type": "uint8"
                },
                {
                  "internalType": "uint8",
                  "name": "battleDefense",
                  "type": "uint8"
                },
                {
                  "internalType": "uint8",
                  "name": "battleMoveId",
                  "type": "uint8"
                }
              ],
              "internalType": "struct CardBattle.Player[2]",
              "name": "playersInBattle",
              "type": "tuple[2]"
            },
            {
              "internalType": "address",
              "name": "winner",
              "type": "address"
            },
            {
              "internalType": "enum CardBattle.BattleStatus",
              "name": "battleStatus",
              "type": "uint8"
            },
            {
              "internalType": "enum CardBattle.Choice[2]",
              "name": "moves",
              "type": "uint8[2]"
            }
          ],
          "internalType": "struct CardBattle.Battle",
          "name": "",
          "type": "tuple"
        }
      ],
      "stateMutability": "view",
      "type": "function"
    },
    {
      "inputs": [
        {
          "internalType": "uint256",
          "name": "battleId",
          "type": "uint256"
        }
      ],
      "name": "getBattleStatus",
      "outputs": [
        {
          "internalType": "enum CardBattle.BattleStatus",
          "name": "",
          "type": "uint8"
        }
      ],
      "stateMutability": "view",
      "type": "function"
    },
    {
      "inputs": [],
      "name": "getContractBalance",
      "outputs": [
        {
          "internalType": "uint256",
          "name": "",
          "type": "uint256"
        }
      ],
      "stateMutability": "view",
      "type": "function"
    },
    {
      "inputs": [
        {
          "internalType": "address",
          "name": "playerAddr",
          "type": "address"
        },
        {
          "internalType": "uint256",
          "name": "tokenId",
          "type": "uint256"
        }
      ],
      "name": "getOwnedTokenAmount",
      "outputs": [
        {
          "internalType": "uint256",
          "name": "",
          "type": "uint256"
        }
      ],
      "stateMutability": "view",
      "type": "function"
    },
    {
      "inputs": [
        {
          "internalType": "address",
          "name": "playerAddr",
          "type": "address"
        }
      ],
      "name": "getPlayer",
      "outputs": [
        {
          "components": [
            {
              "internalType": "address",
              "name": "playerAddr",
              "type": "address"
            },
            {
              "internalType": "uint8",
              "name": "health",
              "type": "uint8"
            },
            {
              "internalType": "uint8",
              "name": "energy",
              "type": "uint8"
            },
            {
              "internalType": "uint256[3]",
              "name": "battleTokens",
              "type": "uint256[3]"
            },
            {
              "internalType": "uint8",
              "name": "battleAttack",
              "type": "uint8"
            },
            {
              "internalType": "uint8",
              "name": "battleDefense",
              "type": "uint8"
            },
            {
              "internalType": "uint8",
              "name": "battleMoveId",
              "type": "uint8"
            }
          ],
          "internalType": "struct CardBattle.Player",
          "name": "",
          "type": "tuple"
        }
      ],
      "stateMutability": "view",
      "type": "function"
    },
    {
      "inputs": [
        {
          "internalType": "uint256",
          "name": "tokenId",
          "type": "uint256"
        }
      ],
      "name": "getToken",
      "outputs": [
        {
          "components": [
            {
              "internalType": "uint8",
              "name": "attack",
              "type": "uint8"
            },
            {
              "internalType": "uint8",
              "name": "defense",
              "type": "uint8"
            }
          ],
          "internalType": "struct CardBattle.Token",
          "name": "",
          "type": "tuple"
        }
      ],
      "stateMutability": "view",
      "type": "function"
    },
    {
      "inputs": [],
      "name": "getWaitingBattle",
      "outputs": [
        {
          "internalType": "uint256[]",
          "name": "",
          "type": "uint256[]"
        }
      ],
      "stateMutability": "view",
      "type": "function"
    },
    {
      "inputs": [],
      "name": "lastMintedChar",
      "outputs": [
        {
          "internalType": "uint256",
          "name": "",
          "type": "uint256"
        }
      ],
      "stateMutability": "view",
      "type": "function"
    },
    {
      "inputs": [
        {
          "internalType": "uint256",
          "name": "battleId",
          "type": "uint256"
        },
        {
          "internalType": "enum CardBattle.Choice",
          "name": "choice",
          "type": "uint8"
        }
      ],
      "name": "makeMove",
      "outputs": [],
      "stateMutability": "nonpayable",
      "type": "function"
    },
    {
      "inputs": [],
      "name": "mintCharacter",
      "outputs": [],
      "stateMutability": "payable",
      "type": "function"
    },
    {
      "inputs": [
        {
          "internalType": "uint256",
          "name": "treasureId",
          "type": "uint256"
        },
        {
          "internalType": "uint256",
          "name": "amount",
          "type": "uint256"
        }
      ],
      "name": "mintTreasure",
      "outputs": [],
      "stateMutability": "payable",
      "type": "function"
    },
    {
      "inputs": [
        {
          "internalType": "address",
          "name": "",
          "type": "address"
        },
        {
          "internalType": "address",
          "name": "",
          "type": "address"
        },
        {
          "internalType": "uint256[]",
          "name": "",
          "type": "uint256[]"
        },
        {
          "internalType": "uint256[]",
          "name": "",
          "type": "uint256[]"
        },
        {
          "internalType": "bytes",
          "name": "",
          "type": "bytes"
        }
      ],
      "name": "onERC1155BatchReceived",
      "outputs": [
        {
          "internalType": "bytes4",
          "name": "",
          "type": "bytes4"
        }
      ],
      "stateMutability": "nonpayable",
      "type": "function"
    },
    {
      "inputs": [
        {
          "internalType": "address",
          "name": "",
          "type": "address"
        },
        {
          "internalType": "address",
          "name": "",
          "type": "address"
        },
        {
          "internalType": "uint256",
          "name": "",
          "type": "uint256"
        },
        {
          "internalType": "uint256",
          "name": "",
          "type": "uint256"
        },
        {
          "internalType": "bytes",
          "name": "",
          "type": "bytes"
        }
      ],
      "name": "onERC1155Received",
      "outputs": [
        {
          "internalType": "bytes4",
          "name": "",
          "type": "bytes4"
        }
      ],
      "stateMutability": "nonpayable",
      "type": "function"
    },
    {
      "inputs": [],
      "name": "owner",
      "outputs": [
        {
          "internalType": "address",
          "name": "",
          "type": "address"
        }
      ],
      "stateMutability": "view",
      "type": "function"
    },
    {
      "inputs": [],
      "name": "ownerWithdraw",
      "outputs": [],
      "stateMutability": "nonpayable",
      "type": "function"
    },
    {
      "inputs": [
        {
          "internalType": "uint256",
          "name": "characterId",
          "type": "uint256"
        }
      ],
      "name": "pickCharacter",
      "outputs": [],
      "stateMutability": "nonpayable",
      "type": "function"
    },
    {
      "inputs": [],
      "name": "playGame",
      "outputs": [],
      "stateMutability": "nonpayable",
      "type": "function"
    },
    {
      "inputs": [],
      "name": "registerPlayer",
      "outputs": [],
      "stateMutability": "nonpayable",
      "type": "function"
    },
    {
      "inputs": [],
      "name": "renounceOwnership",
      "outputs": [],
      "stateMutability": "nonpayable",
      "type": "function"
    },
    {
      "inputs": [
        {
          "internalType": "bytes4",
          "name": "interfaceId",
          "type": "bytes4"
        }
      ],
      "name": "supportsInterface",
      "outputs": [
        {
          "internalType": "bool",
          "name": "",
          "type": "bool"
        }
      ],
      "stateMutability": "view",
      "type": "function"
    },
    {
      "inputs": [
        {
          "internalType": "address",
          "name": "newOwner",
          "type": "address"
        }
      ],
      "name": "transferOwnership",
      "outputs": [],
      "stateMutability": "nonpayable",
      "type": "function"
    },
    {
      "inputs": [],
      "name": "treasurePrice",
      "outputs": [
        {
          "internalType": "uint256",
          "name": "",
          "type": "uint256"
        }
      ],
      "stateMutability": "view",
      "type": "function"
    },
    {
      "inputs": [],
      "name": "useBerserk",
      "outputs": [],
      "stateMutability": "nonpayable",
      "type": "function"
    },
    {
      "inputs": [],
      "name": "useForceShield",
      "outputs": [],
      "stateMutability": "nonpayable",
      "type": "function"
    }
  ],
  "transactionHash": "0x13fe5f89c07790bb3a18a43e6dec17d440139d14afc923c2077293d8353d3931",
  "args": [
    [
      [
        0,
        0
      ],
      [
        8,
        2
      ],
      [
        7,
        3
      ],
      [
        7,
        3
      ],
      [
        6,
        4
      ],
      [
        6,
        4
      ],
      [
        5,
        5
      ],
      [
        5,
        5
      ],
      [
        1,
        0
      ],
      [
        0,
        1
      ]
    ],
    "0x5FbDB2315678afecb367f032d93F642f64180aa3"
  ],
  "numDeployments": 1,
  "solcInputHash": "22fed0f3fa33b71747f046d895d7d91a",
  "bytecode": "0x60a060405260016002553480156200001657600080fd5b50604051620059403803806200594083398181016040528101906200003c9190620004dc565b6200005c62000050620000b060201b60201c565b620000b860201b60201c565b6001808190555062000074826200017c60201b60201c565b8073ffffffffffffffffffffffffffffffffffffffff1660808173ffffffffffffffffffffffffffffffffffffffff16815250505050620005ce565b600033905090565b60008060009054906101000a900473ffffffffffffffffffffffffffffffffffffffff169050816000806101000a81548173ffffffffffffffffffffffffffffffffffffffff021916908373ffffffffffffffffffffffffffffffffffffffff1602179055508173ffffffffffffffffffffffffffffffffffffffff168173ffffffffffffffffffffffffffffffffffffffff167f8be0079c531659141344cd1fd0a4f28419497f9722a3daafe3b4186f6b6457e060405160405180910390a35050565b60005b81518160ff1610156200024e57818160ff1681518110620001a557620001a462000542565b5b602002602001015160000151600860008360ff16815260200190815260200160002060000160006101000a81548160ff021916908360ff160217905550818160ff1681518110620001fb57620001fa62000542565b5b602002602001015160200151600860008360ff16815260200190815260200160002060000160016101000a81548160ff021916908360ff16021790555080806200024590620005a0565b9150506200017f565b5050565b6000604051905090565b600080fd5b600080fd5b600080fd5b6000601f19601f8301169050919050565b7f4e487b7100000000000000000000000000000000000000000000000000000000600052604160045260246000fd5b620002b6826200026b565b810181811067ffffffffffffffff82111715620002d857620002d76200027c565b5b80604052505050565b6000620002ed62000252565b9050620002fb8282620002ab565b919050565b600067ffffffffffffffff8211156200031e576200031d6200027c565b5b602082029050602081019050919050565b600080fd5b600080fd5b600060ff82169050919050565b620003518162000339565b81146200035d57600080fd5b50565b600081519050620003718162000346565b92915050565b60006040828403121562000390576200038f62000334565b5b6200039c6040620002e1565b90506000620003ae8482850162000360565b6000830152506020620003c48482850162000360565b60208301525092915050565b6000620003e7620003e18462000300565b620002e1565b905080838252602082019050604084028301858111156200040d576200040c6200032f565b5b835b818110156200043a578062000425888262000377565b8452602084019350506040810190506200040f565b5050509392505050565b600082601f8301126200045c576200045b62000266565b5b81516200046e848260208601620003d0565b91505092915050565b600073ffffffffffffffffffffffffffffffffffffffff82169050919050565b6000620004a48262000477565b9050919050565b620004b68162000497565b8114620004c257600080fd5b50565b600081519050620004d681620004ab565b92915050565b60008060408385031215620004f657620004f56200025c565b5b600083015167ffffffffffffffff81111562000517576200051662000261565b5b620005258582860162000444565b92505060206200053885828601620004c5565b9150509250929050565b7f4e487b7100000000000000000000000000000000000000000000000000000000600052603260045260246000fd5b7f4e487b7100000000000000000000000000000000000000000000000000000000600052601160045260246000fd5b6000620005ad8262000339565b915060ff8203620005c357620005c262000571565b5b600182019050919050565b60805161533a620006066000396000818161080601528181610b9e01528181610da701528181611b450152611e3a015261533a6000f3fe6080604052600436106101815760003560e01c8063905da9ef116100d1578063cbf5fd2e1161008a578063e4b50cb811610064578063e4b50cb814610519578063f23a6e6114610556578063f2fde38b14610593578063faf039f4146105bc57610181565b8063cbf5fd2e14610486578063d618bb6d146104b1578063d741cb73146104ee57610181565b8063905da9ef1461037657806390aee14d1461039f5780639586d0ce146103dc578063abdef39914610407578063af89973514610432578063bc197c811461044957610181565b80635c07a4b01161013e5780636f9fb98a116101185780636f9fb98a146102e0578063715018a61461030b5780637fd6f7c4146103225780638da5cb5b1461034b57610181565b80635c07a4b01461024f5780635c12cd4b146102665780636dd0ce7a146102a357610181565b806301ffc9a71461018657806304a362ad146101c35780633f647250146101ee5780634311de8f146102055780634fc2baaf1461021c5780635b15693414610233575b600080fd5b34801561019257600080fd5b506101ad60048036038101906101a89190614022565b6105c6565b6040516101ba919061406a565b60405180910390f35b3480156101cf57600080fd5b506101d8610640565b6040516101e5919061409e565b60405180910390f35b3480156101fa57600080fd5b5061020361064a565b005b34801561021157600080fd5b5061021a6108f3565b005b34801561022857600080fd5b506102316109e2565b005b61024d600480360381019061024891906140e5565b610c8b565b005b34801561025b57600080fd5b50610264610ea6565b005b34801561027257600080fd5b5061028d60048036038101906102889190614183565b6110f7565b60405161029a9190614316565b60405180910390f35b3480156102af57600080fd5b506102ca60048036038101906102c59190614332565b61127c565b6040516102d79190614640565b60405180910390f35b3480156102ec57600080fd5b506102f561152c565b604051610302919061409e565b60405180910390f35b34801561031757600080fd5b50610320611534565b005b34801561032e57600080fd5b5061034960048036038101906103449190614681565b611548565b005b34801561035757600080fd5b5061036061182a565b60405161036d91906146d0565b60405180910390f35b34801561038257600080fd5b5061039d60048036038101906103989190614332565b611853565b005b3480156103ab57600080fd5b506103c660048036038101906103c19190614332565b611a03565b6040516103d391906146fa565b60405180910390f35b3480156103e857600080fd5b506103f1611a30565b6040516103fe919061409e565b60405180910390f35b34801561041357600080fd5b5061041c611a36565b604051610429919061409e565b60405180910390f35b34801561043e57600080fd5b50610447611a41565b005b34801561045557600080fd5b50610470600480360381019061046b9190614923565b611b2e565b60405161047d9190614a01565b60405180910390f35b34801561049257600080fd5b5061049b611b43565b6040516104a89190614a7b565b60405180910390f35b3480156104bd57600080fd5b506104d860048036038101906104d39190614a96565b611b67565b6040516104e5919061409e565b60405180910390f35b3480156104fa57600080fd5b50610503611bc2565b6040516105109190614b6d565b60405180910390f35b34801561052557600080fd5b50610540600480360381019061053b9190614332565b611c1a565b60405161054d9190614bbe565b60405180910390f35b34801561056257600080fd5b5061057d60048036038101906105789190614bd9565b611c81565b60405161058a9190614a01565b60405180910390f35b34801561059f57600080fd5b506105ba60048036038101906105b59190614183565b611c96565b005b6105c4611d19565b005b60007f4e2312e0000000000000000000000000000000000000000000000000000000007bffffffffffffffffffffffffffffffffffffffffffffffffffffffff1916827bffffffffffffffffffffffffffffffffffffffffffffffffffffffff19161480610639575061063882611f40565b5b9050919050565b65b5e620f4800081565b600073ffffffffffffffffffffffffffffffffffffffff16600560003373ffffffffffffffffffffffffffffffffffffffff1673ffffffffffffffffffffffffffffffffffffffff16815260200190815260200160002060000160009054906101000a900473ffffffffffffffffffffffffffffffffffffffff1673ffffffffffffffffffffffffffffffffffffffff1603610712576040517fc147f17700000000000000000000000000000000000000000000000000000000815260040160405180910390fd5b6000600660003373ffffffffffffffffffffffffffffffffffffffff1673ffffffffffffffffffffffffffffffffffffffff168152602001908152602001600020600060098152602001908152602001600020541161079d576040517f2754a9c900000000000000000000000000000000000000000000000000000000815260040160405180910390fd5b600660003373ffffffffffffffffffffffffffffffffffffffff1673ffffffffffffffffffffffffffffffffffffffff16815260200190815260200160002060006009815260200190815260200160002060008154809291906107ff90614c9f565b91905055507f000000000000000000000000000000000000000000000000000000000000000073ffffffffffffffffffffffffffffffffffffffff1663f5298aca33600960016040518463ffffffff1660e01b815260040161086393929190614d3e565b600060405180830381600087803b15801561087d57600080fd5b505af1158015610891573d6000803e3d6000fd5b505050506009600560003373ffffffffffffffffffffffffffffffffffffffff1673ffffffffffffffffffffffffffffffffffffffff1681526020019081526020016000206001016002600381106108ec576108eb614d75565b5b0181905550565b6108fb611faa565b600047905060003373ffffffffffffffffffffffffffffffffffffffff168260405161092690614dd5565b60006040518083038185875af1925050503d8060008114610963576040519150601f19603f3d011682016040523d82523d6000602084013e610968565b606091505b50509050806109a3576040517fd13ab74a00000000000000000000000000000000000000000000000000000000815260040160405180910390fd5b7fed567091ef7b09c7e58c1282f9bce864ddd50be3842439ec2d2f3d6b37d187013383426040516109d693929190614dea565b60405180910390a15050565b600073ffffffffffffffffffffffffffffffffffffffff16600560003373ffffffffffffffffffffffffffffffffffffffff1673ffffffffffffffffffffffffffffffffffffffff16815260200190815260200160002060000160009054906101000a900473ffffffffffffffffffffffffffffffffffffffff1673ffffffffffffffffffffffffffffffffffffffff1603610aaa576040517fc147f17700000000000000000000000000000000000000000000000000000000815260040160405180910390fd5b6000600660003373ffffffffffffffffffffffffffffffffffffffff1673ffffffffffffffffffffffffffffffffffffffff1681526020019081526020016000206000600881526020019081526020016000205411610b35576040517f2754a9c900000000000000000000000000000000000000000000000000000000815260040160405180910390fd5b600660003373ffffffffffffffffffffffffffffffffffffffff1673ffffffffffffffffffffffffffffffffffffffff1681526020019081526020016000206000600881526020019081526020016000206000815480929190610b9790614c9f565b91905055507f000000000000000000000000000000000000000000000000000000000000000073ffffffffffffffffffffffffffffffffffffffff1663f5298aca33600860016040518463ffffffff1660e01b8152600401610bfb93929190614e5c565b600060405180830381600087803b158015610c1557600080fd5b505af1158015610c29573d6000803e3d6000fd5b505050506008600560003373ffffffffffffffffffffffffffffffffffffffff1673ffffffffffffffffffffffffffffffffffffffff168152602001908152602001600020600101600160038110610c8457610c83614d75565b5b0181905550565b600073ffffffffffffffffffffffffffffffffffffffff16600560003373ffffffffffffffffffffffffffffffffffffffff1673ffffffffffffffffffffffffffffffffffffffff16815260200190815260200160002060000160009054906101000a900473ffffffffffffffffffffffffffffffffffffffff1673ffffffffffffffffffffffffffffffffffffffff1603610d53576040517fc147f17700000000000000000000000000000000000000000000000000000000815260040160405180910390fd5b610d5b612028565b8065b5e620f48000610d6d9190614e93565b3414610da5576040517fbcee9f2000000000000000000000000000000000000000000000000000000000815260040160405180910390fd5b7f000000000000000000000000000000000000000000000000000000000000000073ffffffffffffffffffffffffffffffffffffffff1663731133e93384846040518463ffffffff1660e01b8152600401610e0293929190614f09565b600060405180830381600087803b158015610e1c57600080fd5b505af1158015610e30573d6000803e3d6000fd5b50505050600660003373ffffffffffffffffffffffffffffffffffffffff1673ffffffffffffffffffffffffffffffffffffffff16815260200190815260200160002060008381526020019081526020016000206000815480929190610e9590614f53565b9190505550610ea2612077565b5050565b600073ffffffffffffffffffffffffffffffffffffffff16600560003373ffffffffffffffffffffffffffffffffffffffff1673ffffffffffffffffffffffffffffffffffffffff16815260200190815260200160002060000160009054906101000a900473ffffffffffffffffffffffffffffffffffffffff1673ffffffffffffffffffffffffffffffffffffffff1614610f6e576040517f9d78e0b700000000000000000000000000000000000000000000000000000000815260040160405180910390fd5b33600560003373ffffffffffffffffffffffffffffffffffffffff1673ffffffffffffffffffffffffffffffffffffffff16815260200190815260200160002060000160006101000a81548173ffffffffffffffffffffffffffffffffffffffff021916908373ffffffffffffffffffffffffffffffffffffffff160217905550600a600560003373ffffffffffffffffffffffffffffffffffffffff1673ffffffffffffffffffffffffffffffffffffffff16815260200190815260200160002060000160146101000a81548160ff021916908360ff160217905550600a600560003373ffffffffffffffffffffffffffffffffffffffff1673ffffffffffffffffffffffffffffffffffffffff16815260200190815260200160002060000160156101000a81548160ff021916908360ff1602179055503373ffffffffffffffffffffffffffffffffffffffff167f0d145d16b2bc227dbba053ee8ebad2364e38aebbf3cfe1f04b32b1e2996e5ea2426040516110ed919061409e565b60405180910390a2565b6110ff613de6565b600560008373ffffffffffffffffffffffffffffffffffffffff1673ffffffffffffffffffffffffffffffffffffffff1681526020019081526020016000206040518060e00160405290816000820160009054906101000a900473ffffffffffffffffffffffffffffffffffffffff1673ffffffffffffffffffffffffffffffffffffffff1673ffffffffffffffffffffffffffffffffffffffff1681526020016000820160149054906101000a900460ff1660ff1660ff1681526020016000820160159054906101000a900460ff1660ff1660ff16815260200160018201600380602002604051908101604052809291908260038015611215576020028201915b815481526020019060010190808311611201575b505050505081526020016004820160009054906101000a900460ff1660ff1660ff1681526020016004820160019054906101000a900460ff1660ff1660ff1681526020016004820160029054906101000a900460ff1660ff1660ff16815250509050919050565b611284613e4e565b6007600083815260200190815260200160002060405180608001604052908160008201600280602002604051908101604052809291906000905b82821015611412578382600502016040518060e00160405290816000820160009054906101000a900473ffffffffffffffffffffffffffffffffffffffff1673ffffffffffffffffffffffffffffffffffffffff1673ffffffffffffffffffffffffffffffffffffffff1681526020016000820160149054906101000a900460ff1660ff1660ff1681526020016000820160159054906101000a900460ff1660ff1660ff168152602001600182016003806020026040519081016040528092919082600380156113a3576020028201915b81548152602001906001019080831161138f575b505050505081526020016004820160009054906101000a900460ff1660ff1660ff1681526020016004820160019054906101000a900460ff1660ff1660ff1681526020016004820160029054906101000a900460ff1660ff1660ff1681525050815260200190600101906112be565b505050508152602001600a820160009054906101000a900473ffffffffffffffffffffffffffffffffffffffff1673ffffffffffffffffffffffffffffffffffffffff1673ffffffffffffffffffffffffffffffffffffffff168152602001600a820160149054906101000a900460ff1660028111156114955761149461448c565b5b60028111156114a7576114a661448c565b5b8152602001600b820160028060200260405190810160405280929190826002801561151c576020028201916000905b82829054906101000a900460ff1660028111156114f6576114f561448c565b5b815260200190600101906020826000010492830192600103820291508084116114d65790505b5050505050815250509050919050565b600047905090565b61153c611faa565b6115466000612080565b565b600073ffffffffffffffffffffffffffffffffffffffff16600560003373ffffffffffffffffffffffffffffffffffffffff1673ffffffffffffffffffffffffffffffffffffffff16815260200190815260200160002060000160009054906101000a900473ffffffffffffffffffffffffffffffffffffffff1673ffffffffffffffffffffffffffffffffffffffff1603611610576040517fc147f17700000000000000000000000000000000000000000000000000000000815260040160405180910390fd5b600160028111156116245761162361448c565b5b60076000848152602001908152602001600020600a0160149054906101000a900460ff16600281111561165a5761165961448c565b5b14611691576040517f37e3281d00000000000000000000000000000000000000000000000000000000815260040160405180910390fd5b6000600560003373ffffffffffffffffffffffffffffffffffffffff1673ffffffffffffffffffffffffffffffffffffffff16815260200190815260200160002060040160029054906101000a900460ff1690508160076000858152602001908152602001600020600b018260ff166002811061171157611710614d75565b5b602091828204019190066101000a81548160ff0219169083600281111561173b5761173a61448c565b5b0217905550600060028111156117545761175361448c565b5b60076000858152602001908152602001600020600b0160006002811061177d5761177c614d75565b5b602091828204019190069054906101000a900460ff1660028111156117a5576117a461448c565b5b141580156118165750600060028111156117c2576117c161448c565b5b60076000858152602001908152602001600020600b016001600281106117eb576117ea614d75565b5b602091828204019190069054906101000a900460ff1660028111156118135761181261448c565b5b14155b156118255761182483612144565b5b505050565b60008060009054906101000a900473ffffffffffffffffffffffffffffffffffffffff16905090565b600073ffffffffffffffffffffffffffffffffffffffff16600560003373ffffffffffffffffffffffffffffffffffffffff1673ffffffffffffffffffffffffffffffffffffffff16815260200190815260200160002060000160009054906101000a900473ffffffffffffffffffffffffffffffffffffffff1673ffffffffffffffffffffffffffffffffffffffff160361191b576040517fc147f17700000000000000000000000000000000000000000000000000000000815260040160405180910390fd5b6000600660003373ffffffffffffffffffffffffffffffffffffffff1673ffffffffffffffffffffffffffffffffffffffff168152602001908152602001600020600083815260200190815260200160002054116119a5576040517f544254ad00000000000000000000000000000000000000000000000000000000815260040160405180910390fd5b80600560003373ffffffffffffffffffffffffffffffffffffffff1673ffffffffffffffffffffffffffffffffffffffff1681526020019081526020016000206001016000600381106119fb576119fa614d75565b5b018190555050565b600060076000838152602001908152602001600020600a0160149054906101000a900460ff169050919050565b60035481565b66038d7ea4c6800081565b600073ffffffffffffffffffffffffffffffffffffffff16600560003373ffffffffffffffffffffffffffffffffffffffff1673ffffffffffffffffffffffffffffffffffffffff16815260200190815260200160002060000160009054906101000a900473ffffffffffffffffffffffffffffffffffffffff1673ffffffffffffffffffffffffffffffffffffffff1603611b09576040517fc147f17700000000000000000000000000000000000000000000000000000000815260040160405180910390fd5b600060048054905003611b2357611b1e612ffb565b611b2c565b611b2b6135e8565b5b565b600063bc197c8160e01b905095945050505050565b7f000000000000000000000000000000000000000000000000000000000000000081565b6000600660008473ffffffffffffffffffffffffffffffffffffffff1673ffffffffffffffffffffffffffffffffffffffff168152602001908152602001600020600083815260200190815260200160002054905092915050565b60606004805480602002602001604051908101604052809291908181526020018280548015611c1057602002820191906000526020600020905b815481526020019060010190808311611bfc575b5050505050905090565b611c22613eaa565b600860008381526020019081526020016000206040518060400160405290816000820160009054906101000a900460ff1660ff1660ff1681526020016000820160019054906101000a900460ff1660ff1660ff16815250509050919050565b600063f23a6e6160e01b905095945050505050565b611c9e611faa565b600073ffffffffffffffffffffffffffffffffffffffff168173ffffffffffffffffffffffffffffffffffffffff1603611d0d576040517f08c379a0000000000000000000000000000000000000000000000000000000008152600401611d049061501e565b60405180910390fd5b611d1681612080565b50565b600073ffffffffffffffffffffffffffffffffffffffff16600560003373ffffffffffffffffffffffffffffffffffffffff1673ffffffffffffffffffffffffffffffffffffffff16815260200190815260200160002060000160009054906101000a900473ffffffffffffffffffffffffffffffffffffffff1673ffffffffffffffffffffffffffffffffffffffff1603611de1576040517fc147f17700000000000000000000000000000000000000000000000000000000815260040160405180910390fd5b611de9612028565b66038d7ea4c680003414611e29576040517fbcee9f2000000000000000000000000000000000000000000000000000000000815260040160405180910390fd5b6000611e36600733613cba565b90507f000000000000000000000000000000000000000000000000000000000000000073ffffffffffffffffffffffffffffffffffffffff1663731133e9338360016040518463ffffffff1660e01b8152600401611e969392919061503e565b600060405180830381600087803b158015611eb057600080fd5b505af1158015611ec4573d6000803e3d6000fd5b50505050600660003373ffffffffffffffffffffffffffffffffffffffff1673ffffffffffffffffffffffffffffffffffffffff16815260200190815260200160002060008281526020019081526020016000206000815480929190611f2990614f53565b91905055508060038190555050611f3e612077565b565b60007f01ffc9a7000000000000000000000000000000000000000000000000000000007bffffffffffffffffffffffffffffffffffffffffffffffffffffffff1916827bffffffffffffffffffffffffffffffffffffffffffffffffffffffff1916149050919050565b611fb2613d11565b73ffffffffffffffffffffffffffffffffffffffff16611fd061182a565b73ffffffffffffffffffffffffffffffffffffffff1614612026576040517f08c379a000000000000000000000000000000000000000000000000000000000815260040161201d906150d4565b60405180910390fd5b565b60026001540361206d576040517f08c379a000000000000000000000000000000000000000000000000000000000815260040161206490615140565b60405180910390fd5b6002600181905550565b60018081905550565b60008060009054906101000a900473ffffffffffffffffffffffffffffffffffffffff169050816000806101000a81548173ffffffffffffffffffffffffffffffffffffffff021916908373ffffffffffffffffffffffffffffffffffffffff1602179055508173ffffffffffffffffffffffffffffffffffffffff168173ffffffffffffffffffffffffffffffffffffffff167f8be0079c531659141344cd1fd0a4f28419497f9722a3daafe3b4186f6b6457e060405160405180910390a35050565b60006007600083815260200190815260200160002060000160006002811061216f5761216e614d75565b5b600502016040518060e00160405290816000820160009054906101000a900473ffffffffffffffffffffffffffffffffffffffff1673ffffffffffffffffffffffffffffffffffffffff1673ffffffffffffffffffffffffffffffffffffffff1681526020016000820160149054906101000a900460ff1660ff1660ff1681526020016000820160159054906101000a900460ff1660ff1660ff1681526020016001820160038060200260405190810160405280929190826003801561224a576020028201915b815481526020019060010190808311612236575b505050505081526020016004820160009054906101000a900460ff1660ff1660ff1681526020016004820160019054906101000a900460ff1660ff1660ff1681526020016004820160029054906101000a900460ff1660ff1660ff168152505090506000600760008481526020019081526020016000206000016001600281106122d7576122d6614d75565b5b600502016040518060e00160405290816000820160009054906101000a900473ffffffffffffffffffffffffffffffffffffffff1673ffffffffffffffffffffffffffffffffffffffff1673ffffffffffffffffffffffffffffffffffffffff1681526020016000820160149054906101000a900460ff1660ff1660ff1681526020016000820160159054906101000a900460ff1660ff1660ff168152602001600182016003806020026040519081016040528092919082600380156123b2576020028201915b81548152602001906001019080831161239e575b505050505081526020016004820160009054906101000a900460ff1660ff1660ff1681526020016004820160019054906101000a900460ff1660ff1660ff1681526020016004820160029054906101000a900460ff1660ff1660ff16815250509050600060076000858152602001908152602001600020600b0160006002811061243f5761243e614d75565b5b602091828204019190069054906101000a900460ff169050600060076000868152602001908152602001600020600b0160016002811061248257612481614d75565b5b602091828204019190069054906101000a900460ff169050600160028111156124ae576124ad61448c565b5b8260028111156124c1576124c061448c565b5b1480156124f25750600160028111156124dd576124dc61448c565b5b8160028111156124f0576124ef61448c565b5b145b156127e1578260800151846020015161250b9190615160565b846020019060ff16908160ff1681525050836080015183602001516125309190615160565b836020019060ff16908160ff16815250506000846020015160ff1611801561256057506000836020015160ff1611155b156125cc57836000015160076000878152602001908152602001600020600a0160006101000a81548173ffffffffffffffffffffffffffffffffffffffff021916908373ffffffffffffffffffffffffffffffffffffffff1602179055506125c785613d19565b612688565b6000846020015160ff16111580156125eb57506000836020015160ff16115b1561265757826000015160076000878152602001908152602001600020600a0160006101000a81548173ffffffffffffffffffffffffffffffffffffffff021916908373ffffffffffffffffffffffffffffffffffffffff16021790555061265285613d19565b612687565b6000846020015160ff161115801561267757506000836020015160ff1611155b156126865761268585613d19565b5b5b5b60028460400181815161269b9190615160565b91509060ff16908160ff16815250506002836040018181516126bd9190615160565b91509060ff16908160ff16815250506000846040015160ff16036127dc57826020015160ff16846020015160ff16111561275857836000015160076000878152602001908152602001600020600a0160006101000a81548173ffffffffffffffffffffffffffffffffffffffff021916908373ffffffffffffffffffffffffffffffffffffffff16021790555061275385613d19565b6127d2565b826020015160ff16846020015160ff1610156127d157826000015160076000878152602001908152602001600020600a0160006101000a81548173ffffffffffffffffffffffffffffffffffffffff021916908373ffffffffffffffffffffffffffffffffffffffff1602179055506127d085613d19565b5b5b6127db85613d19565b5b612ff4565b600160028111156127f5576127f461448c565b5b8260028111156128085761280761448c565b5b14801561283857506002808111156128235761282261448c565b5b8160028111156128365761283561448c565b5b145b15612b11578260a00151846080015184602001516128569190615160565b6128609190615195565b836020019060ff16908160ff16815250506000846020015160ff1611801561289057506000836020015160ff1611155b156128fc57836000015160076000878152602001908152602001600020600a0160006101000a81548173ffffffffffffffffffffffffffffffffffffffff021916908373ffffffffffffffffffffffffffffffffffffffff1602179055506128f785613d19565b6129b8565b6000846020015160ff161115801561291b57506000836020015160ff16115b1561298757826000015160076000878152602001908152602001600020600a0160006101000a81548173ffffffffffffffffffffffffffffffffffffffff021916908373ffffffffffffffffffffffffffffffffffffffff16021790555061298285613d19565b6129b7565b6000846020015160ff16111580156129a757506000836020015160ff1611155b156129b6576129b585613d19565b5b5b5b6002846040018181516129cb9190615160565b91509060ff16908160ff16815250506002836040018181516129ed9190615160565b91509060ff16908160ff16815250506000846040015160ff1603612b0c57826020015160ff16846020015160ff161115612a8857836000015160076000878152602001908152602001600020600a0160006101000a81548173ffffffffffffffffffffffffffffffffffffffff021916908373ffffffffffffffffffffffffffffffffffffffff160217905550612a8385613d19565b612b02565b826020015160ff16846020015160ff161015612b0157826000015160076000878152602001908152602001600020600a0160006101000a81548173ffffffffffffffffffffffffffffffffffffffff021916908373ffffffffffffffffffffffffffffffffffffffff160217905550612b0085613d19565b5b5b612b0b85613d19565b5b612ff3565b600280811115612b2457612b2361448c565b5b826002811115612b3757612b3661448c565b5b148015612b68575060016002811115612b5357612b5261448c565b5b816002811115612b6657612b6561448c565b5b145b15612e41578360a0015183608001518560200151612b869190615160565b612b909190615195565b846020019060ff16908160ff16815250506000846020015160ff16118015612bc057506000836020015160ff1611155b15612c2c57836000015160076000878152602001908152602001600020600a0160006101000a81548173ffffffffffffffffffffffffffffffffffffffff021916908373ffffffffffffffffffffffffffffffffffffffff160217905550612c2785613d19565b612ce8565b6000846020015160ff1611158015612c4b57506000836020015160ff16115b15612cb757826000015160076000878152602001908152602001600020600a0160006101000a81548173ffffffffffffffffffffffffffffffffffffffff021916908373ffffffffffffffffffffffffffffffffffffffff160217905550612cb285613d19565b612ce7565b6000846020015160ff1611158015612cd757506000836020015160ff1611155b15612ce657612ce585613d19565b5b5b5b600284604001818151612cfb9190615160565b91509060ff16908160ff1681525050600283604001818151612d1d9190615160565b91509060ff16908160ff16815250506000846040015160ff1603612e3c57826020015160ff16846020015160ff161115612db857836000015160076000878152602001908152602001600020600a0160006101000a81548173ffffffffffffffffffffffffffffffffffffffff021916908373ffffffffffffffffffffffffffffffffffffffff160217905550612db385613d19565b612e32565b826020015160ff16846020015160ff161015612e3157826000015160076000878152602001908152602001600020600a0160006101000a81548173ffffffffffffffffffffffffffffffffffffffff021916908373ffffffffffffffffffffffffffffffffffffffff160217905550612e3085613d19565b5b5b612e3b85613d19565b5b612ff2565b600280811115612e5457612e5361448c565b5b826002811115612e6757612e6661448c565b5b148015612e975750600280811115612e8257612e8161448c565b5b816002811115612e9557612e9461448c565b5b145b15612ff157600284604001818151612eaf9190615160565b91509060ff16908160ff1681525050600283604001818151612ed19190615160565b91509060ff16908160ff16815250506000846040015160ff1603612ff057826020015160ff16846020015160ff161115612f6c57836000015160076000878152602001908152602001600020600a0160006101000a81548173ffffffffffffffffffffffffffffffffffffffff021916908373ffffffffffffffffffffffffffffffffffffffff160217905550612f6785613d19565b612fe6565b826020015160ff16846020015160ff161015612fe557826000015160076000878152602001908152602001600020600a0160006101000a81548173ffffffffffffffffffffffffffffffffffffffff021916908373ffffffffffffffffffffffffffffffffffffffff160217905550612fe485613d19565b5b5b612fef85613d19565b5b5b5b5b5b5050505050565b600073ffffffffffffffffffffffffffffffffffffffff16600560003373ffffffffffffffffffffffffffffffffffffffff1673ffffffffffffffffffffffffffffffffffffffff16815260200190815260200160002060000160009054906101000a900473ffffffffffffffffffffffffffffffffffffffff1673ffffffffffffffffffffffffffffffffffffffff16036130c3576040517fc147f17700000000000000000000000000000000000000000000000000000000815260040160405180910390fd5b600060048054905014613102576040517f49f3210d00000000000000000000000000000000000000000000000000000000815260040160405180910390fd5b6000600560003373ffffffffffffffffffffffffffffffffffffffff1673ffffffffffffffffffffffffffffffffffffffff16815260200190815260200160002060010160006003811061315957613158614d75565b5b015490506000600560003373ffffffffffffffffffffffffffffffffffffffff1673ffffffffffffffffffffffffffffffffffffffff1681526020019081526020016000206001016001600381106131b4576131b3614d75565b5b015490506000600560003373ffffffffffffffffffffffffffffffffffffffff1673ffffffffffffffffffffffffffffffffffffffff16815260200190815260200160002060010160026003811061320f5761320e614d75565b5b015490506008600083815260200190815260200160002060000160009054906101000a900460ff166008600085815260200190815260200160002060000160009054906101000a900460ff166132659190615195565b600560003373ffffffffffffffffffffffffffffffffffffffff1673ffffffffffffffffffffffffffffffffffffffff16815260200190815260200160002060040160006101000a81548160ff021916908360ff1602179055506008600082815260200190815260200160002060000160019054906101000a900460ff166008600085815260200190815260200160002060000160019054906101000a900460ff166133119190615195565b600560003373ffffffffffffffffffffffffffffffffffffffff1673ffffffffffffffffffffffffffffffffffffffff16815260200190815260200160002060040160016101000a81548160ff021916908360ff1602179055506000600560003373ffffffffffffffffffffffffffffffffffffffff1673ffffffffffffffffffffffffffffffffffffffff16815260200190815260200160002060040160026101000a81548160ff021916908360ff16021790555060006002549050600260008154809291906133e190614f53565b9190505550600560003373ffffffffffffffffffffffffffffffffffffffff1673ffffffffffffffffffffffffffffffffffffffff1681526020019081526020016000206007600083815260200190815260200160002060000160006002811061344e5761344d614d75565b5b600502016000820160009054906101000a900473ffffffffffffffffffffffffffffffffffffffff168160000160006101000a81548173ffffffffffffffffffffffffffffffffffffffff021916908373ffffffffffffffffffffffffffffffffffffffff1602179055506000820160149054906101000a900460ff168160000160146101000a81548160ff021916908360ff1602179055506000820160159054906101000a900460ff168160000160156101000a81548160ff021916908360ff160217905550600182018160010190600361352b929190613eca565b506004820160009054906101000a900460ff168160040160006101000a81548160ff021916908360ff1602179055506004820160019054906101000a900460ff168160040160016101000a81548160ff021916908360ff1602179055506004820160029054906101000a900460ff168160040160026101000a81548160ff021916908360ff160217905550905050600481908060018154018082558091505060019003906000526020600020016000909190919091505550505050565b600073ffffffffffffffffffffffffffffffffffffffff16600560003373ffffffffffffffffffffffffffffffffffffffff1673ffffffffffffffffffffffffffffffffffffffff16815260200190815260200160002060000160009054906101000a900473ffffffffffffffffffffffffffffffffffffffff1673ffffffffffffffffffffffffffffffffffffffff16036136b0576040517fc147f17700000000000000000000000000000000000000000000000000000000815260040160405180910390fd5b6000600480549050036136ef576040517fee7b13ed00000000000000000000000000000000000000000000000000000000815260040160405180910390fd5b6000600460008154811061370657613705614d75565b5b9060005260206000200154905060006007600083815260200190815260200160002060000160006002811061373e5761373d614d75565b5b6005020160000160009054906101000a900473ffffffffffffffffffffffffffffffffffffffff169050600460006137769190613f07565b6000600560003373ffffffffffffffffffffffffffffffffffffffff1673ffffffffffffffffffffffffffffffffffffffff1681526020019081526020016000206001016000600381106137cd576137cc614d75565b5b015490506000600560003373ffffffffffffffffffffffffffffffffffffffff1673ffffffffffffffffffffffffffffffffffffffff16815260200190815260200160002060010160016003811061382857613827614d75565b5b015490506000600560003373ffffffffffffffffffffffffffffffffffffffff1673ffffffffffffffffffffffffffffffffffffffff16815260200190815260200160002060010160026003811061388357613882614d75565b5b015490506008600083815260200190815260200160002060000160009054906101000a900460ff166008600085815260200190815260200160002060000160009054906101000a900460ff166138d99190615195565b600560003373ffffffffffffffffffffffffffffffffffffffff1673ffffffffffffffffffffffffffffffffffffffff16815260200190815260200160002060040160006101000a81548160ff021916908360ff1602179055506008600082815260200190815260200160002060000160019054906101000a900460ff166008600085815260200190815260200160002060000160019054906101000a900460ff166139859190615195565b600560003373ffffffffffffffffffffffffffffffffffffffff1673ffffffffffffffffffffffffffffffffffffffff16815260200190815260200160002060040160016101000a81548160ff021916908360ff1602179055506001600560003373ffffffffffffffffffffffffffffffffffffffff1673ffffffffffffffffffffffffffffffffffffffff16815260200190815260200160002060040160026101000a81548160ff021916908360ff160217905550600560003373ffffffffffffffffffffffffffffffffffffffff1673ffffffffffffffffffffffffffffffffffffffff16815260200190815260200160002060076000878152602001908152602001600020600001600160028110613aa357613aa2614d75565b5b600502016000820160009054906101000a900473ffffffffffffffffffffffffffffffffffffffff168160000160006101000a81548173ffffffffffffffffffffffffffffffffffffffff021916908373ffffffffffffffffffffffffffffffffffffffff1602179055506000820160149054906101000a900460ff168160000160146101000a81548160ff021916908360ff1602179055506000820160159054906101000a900460ff168160000160156101000a81548160ff021916908360ff1602179055506001820181600101906003613b80929190613eca565b506004820160009054906101000a900460ff168160040160006101000a81548160ff021916908360ff1602179055506004820160019054906101000a900460ff168160040160016101000a81548160ff021916908360ff1602179055506004820160029054906101000a900460ff168160040160026101000a81548160ff021916908360ff160217905550905050600160076000878152602001908152602001600020600a0160146101000a81548160ff02191690836002811115613c4857613c4761448c565b5b02179055503373ffffffffffffffffffffffffffffffffffffffff168473ffffffffffffffffffffffffffffffffffffffff16867f76132b4934e8e1180c666b4faf8c43e62f31a77e7554cfe83fc6e66cd2a1b21c42604051613cab919061409e565b60405180910390a45050505050565b600080444284604051602001613cd293929190615233565b6040516020818303038152906040528051906020012060001c90508381613cf9919061529f565b9150600182613d0891906152d0565b91505092915050565b600033905090565b600060076000838152602001908152602001600020600a0160009054906101000a900473ffffffffffffffffffffffffffffffffffffffff169050600260076000848152602001908152602001600020600a0160146101000a81548160ff02191690836002811115613d8e57613d8d61448c565b5b02179055508073ffffffffffffffffffffffffffffffffffffffff16827f7ab763991403f1ab5ef7acc377fba3a65b3c9a4b4cd6c17c86bc00898cd6771142604051613dda919061409e565b60405180910390a35050565b6040518060e00160405280600073ffffffffffffffffffffffffffffffffffffffff168152602001600060ff168152602001600060ff168152602001613e2a613f28565b8152602001600060ff168152602001600060ff168152602001600060ff1681525090565b6040518060800160405280613e61613f4a565b8152602001600073ffffffffffffffffffffffffffffffffffffffff16815260200160006002811115613e9757613e9661448c565b5b8152602001613ea4613f77565b81525090565b6040518060400160405280600060ff168152602001600060ff1681525090565b8260038101928215613ef6579182015b82811115613ef5578254825591600101919060010190613eda565b5b509050613f039190613f99565b5090565b5080546000825590600052602060002090810190613f259190613f99565b50565b6040518060600160405280600390602082028036833780820191505090505090565b60405180604001604052806002905b613f61613de6565b815260200190600190039081613f595790505090565b6040518060400160405280600290602082028036833780820191505090505090565b5b80821115613fb2576000816000905550600101613f9a565b5090565b6000604051905090565b600080fd5b600080fd5b60007fffffffff0000000000000000000000000000000000000000000000000000000082169050919050565b613fff81613fca565b811461400a57600080fd5b50565b60008135905061401c81613ff6565b92915050565b60006020828403121561403857614037613fc0565b5b60006140468482850161400d565b91505092915050565b60008115159050919050565b6140648161404f565b82525050565b600060208201905061407f600083018461405b565b92915050565b6000819050919050565b61409881614085565b82525050565b60006020820190506140b3600083018461408f565b92915050565b6140c281614085565b81146140cd57600080fd5b50565b6000813590506140df816140b9565b92915050565b600080604083850312156140fc576140fb613fc0565b5b600061410a858286016140d0565b925050602061411b858286016140d0565b9150509250929050565b600073ffffffffffffffffffffffffffffffffffffffff82169050919050565b600061415082614125565b9050919050565b61416081614145565b811461416b57600080fd5b50565b60008135905061417d81614157565b92915050565b60006020828403121561419957614198613fc0565b5b60006141a78482850161416e565b91505092915050565b6141b981614145565b82525050565b600060ff82169050919050565b6141d5816141bf565b82525050565b600060039050919050565b600081905092915050565b6000819050919050565b61420481614085565b82525050565b600061421683836141fb565b60208301905092915050565b6000602082019050919050565b614238816141db565b61424281846141e6565b925061424d826141f1565b8060005b8381101561427e578151614265878261420a565b965061427083614222565b925050600181019050614251565b505050505050565b6101208201600082015161429d60008501826141b0565b5060208201516142b060208501826141cc565b5060408201516142c360408501826141cc565b5060608201516142d6606085018261422f565b5060808201516142e960c08501826141cc565b5060a08201516142fc60e08501826141cc565b5060c08201516143106101008501826141cc565b50505050565b60006101208201905061432c6000830184614286565b92915050565b60006020828403121561434857614347613fc0565b5b6000614356848285016140d0565b91505092915050565b600060029050919050565b600081905092915050565b6000819050919050565b6101208201600082015161439660008501826141b0565b5060208201516143a960208501826141cc565b5060408201516143bc60408501826141cc565b5060608201516143cf606085018261422f565b5060808201516143e260c08501826141cc565b5060a08201516143f560e08501826141cc565b5060c08201516144096101008501826141cc565b50505050565b600061441b838361437f565b6101208301905092915050565b6000602082019050919050565b61443e8161435f565b614448818461436a565b925061445382614375565b8060005b8381101561448457815161446b878261440f565b965061447683614428565b925050600181019050614457565b505050505050565b7f4e487b7100000000000000000000000000000000000000000000000000000000600052602160045260246000fd5b600381106144cc576144cb61448c565b5b50565b60008190506144dd826144bb565b919050565b60006144ed826144cf565b9050919050565b6144fd816144e2565b82525050565b600060029050919050565b600081905092915050565b6000819050919050565b600381106145345761453361448c565b5b50565b600081905061454582614523565b919050565b600061455582614537565b9050919050565b6145658161454a565b82525050565b6000614577838361455c565b60208301905092915050565b6000602082019050919050565b61459981614503565b6145a3818461450e565b92506145ae82614519565b8060005b838110156145df5781516145c6878261456b565b96506145d183614583565b9250506001810190506145b2565b505050505050565b6102c0820160008201516145fe6000850182614435565b5060208201516146126102408501826141b0565b5060408201516146266102608501826144f4565b50606082015161463a610280850182614590565b50505050565b60006102c08201905061465660008301846145e7565b92915050565b6003811061466957600080fd5b50565b60008135905061467b8161465c565b92915050565b6000806040838503121561469857614697613fc0565b5b60006146a6858286016140d0565b92505060206146b78582860161466c565b9150509250929050565b6146ca81614145565b82525050565b60006020820190506146e560008301846146c1565b92915050565b6146f4816144e2565b82525050565b600060208201905061470f60008301846146eb565b92915050565b600080fd5b6000601f19601f8301169050919050565b7f4e487b7100000000000000000000000000000000000000000000000000000000600052604160045260246000fd5b6147638261471a565b810181811067ffffffffffffffff821117156147825761478161472b565b5b80604052505050565b6000614795613fb6565b90506147a1828261475a565b919050565b600067ffffffffffffffff8211156147c1576147c061472b565b5b602082029050602081019050919050565b600080fd5b60006147ea6147e5846147a6565b61478b565b9050808382526020820190506020840283018581111561480d5761480c6147d2565b5b835b81811015614836578061482288826140d0565b84526020840193505060208101905061480f565b5050509392505050565b600082601f83011261485557614854614715565b5b81356148658482602086016147d7565b91505092915050565b600080fd5b600067ffffffffffffffff82111561488e5761488d61472b565b5b6148978261471a565b9050602081019050919050565b82818337600083830152505050565b60006148c66148c184614873565b61478b565b9050828152602081018484840111156148e2576148e161486e565b5b6148ed8482856148a4565b509392505050565b600082601f83011261490a57614909614715565b5b813561491a8482602086016148b3565b91505092915050565b600080600080600060a0868803121561493f5761493e613fc0565b5b600061494d8882890161416e565b955050602061495e8882890161416e565b945050604086013567ffffffffffffffff81111561497f5761497e613fc5565b5b61498b88828901614840565b935050606086013567ffffffffffffffff8111156149ac576149ab613fc5565b5b6149b888828901614840565b925050608086013567ffffffffffffffff8111156149d9576149d8613fc5565b5b6149e5888289016148f5565b9150509295509295909350565b6149fb81613fca565b82525050565b6000602082019050614a1660008301846149f2565b92915050565b6000819050919050565b6000614a41614a3c614a3784614125565b614a1c565b614125565b9050919050565b6000614a5382614a26565b9050919050565b6000614a6582614a48565b9050919050565b614a7581614a5a565b82525050565b6000602082019050614a906000830184614a6c565b92915050565b60008060408385031215614aad57614aac613fc0565b5b6000614abb8582860161416e565b9250506020614acc858286016140d0565b9150509250929050565b600081519050919050565b600082825260208201905092915050565b6000819050602082019050919050565b6000602082019050919050565b6000614b1a82614ad6565b614b248185614ae1565b9350614b2f83614af2565b8060005b83811015614b60578151614b47888261420a565b9750614b5283614b02565b925050600181019050614b33565b5085935050505092915050565b60006020820190508181036000830152614b878184614b0f565b905092915050565b604082016000820151614ba560008501826141cc565b506020820151614bb860208501826141cc565b50505050565b6000604082019050614bd36000830184614b8f565b92915050565b600080600080600060a08688031215614bf557614bf4613fc0565b5b6000614c038882890161416e565b9550506020614c148882890161416e565b9450506040614c25888289016140d0565b9350506060614c36888289016140d0565b925050608086013567ffffffffffffffff811115614c5757614c56613fc5565b5b614c63888289016148f5565b9150509295509295909350565b7f4e487b7100000000000000000000000000000000000000000000000000000000600052601160045260246000fd5b6000614caa82614085565b915060008203614cbd57614cbc614c70565b5b600182039050919050565b6000819050919050565b6000614ced614ce8614ce384614cc8565b614a1c565b614085565b9050919050565b614cfd81614cd2565b82525050565b6000819050919050565b6000614d28614d23614d1e84614d03565b614a1c565b614085565b9050919050565b614d3881614d0d565b82525050565b6000606082019050614d5360008301866146c1565b614d606020830185614cf4565b614d6d6040830184614d2f565b949350505050565b7f4e487b7100000000000000000000000000000000000000000000000000000000600052603260045260246000fd5b600081905092915050565b50565b6000614dbf600083614da4565b9150614dca82614daf565b600082019050919050565b6000614de082614db2565b9150819050919050565b6000606082019050614dff60008301866146c1565b614e0c602083018561408f565b614e19604083018461408f565b949350505050565b6000819050919050565b6000614e46614e41614e3c84614e21565b614a1c565b614085565b9050919050565b614e5681614e2b565b82525050565b6000606082019050614e7160008301866146c1565b614e7e6020830185614e4d565b614e8b6040830184614d2f565b949350505050565b6000614e9e82614085565b9150614ea983614085565b9250828202614eb781614085565b91508282048414831517614ece57614ecd614c70565b5b5092915050565b600082825260208201905092915050565b6000614ef3600083614ed5565b9150614efe82614daf565b600082019050919050565b6000608082019050614f1e60008301866146c1565b614f2b602083018561408f565b614f38604083018461408f565b8181036060830152614f4981614ee6565b9050949350505050565b6000614f5e82614085565b91507fffffffffffffffffffffffffffffffffffffffffffffffffffffffffffffffff8203614f9057614f8f614c70565b5b600182019050919050565b600082825260208201905092915050565b7f4f776e61626c653a206e6577206f776e657220697320746865207a65726f206160008201527f6464726573730000000000000000000000000000000000000000000000000000602082015250565b6000615008602683614f9b565b915061501382614fac565b604082019050919050565b6000602082019050818103600083015261503781614ffb565b9050919050565b600060808201905061505360008301866146c1565b615060602083018561408f565b61506d6040830184614d2f565b818103606083015261507e81614ee6565b9050949350505050565b7f4f776e61626c653a2063616c6c6572206973206e6f7420746865206f776e6572600082015250565b60006150be602083614f9b565b91506150c982615088565b602082019050919050565b600060208201905081810360008301526150ed816150b1565b9050919050565b7f5265656e7472616e637947756172643a207265656e7472616e742063616c6c00600082015250565b600061512a601f83614f9b565b9150615135826150f4565b602082019050919050565b600060208201905081810360008301526151598161511d565b9050919050565b600061516b826141bf565b9150615176836141bf565b9250828203905060ff81111561518f5761518e614c70565b5b92915050565b60006151a0826141bf565b91506151ab836141bf565b9250828201905060ff8111156151c4576151c3614c70565b5b92915050565b6000819050919050565b6151e56151e082614085565b6151ca565b82525050565b60008160601b9050919050565b6000615203826151eb565b9050919050565b6000615215826151f8565b9050919050565b61522d61522882614145565b61520a565b82525050565b600061523f82866151d4565b60208201915061524f82856151d4565b60208201915061525f828461521c565b601482019150819050949350505050565b7f4e487b7100000000000000000000000000000000000000000000000000000000600052601260045260246000fd5b60006152aa82614085565b91506152b583614085565b9250826152c5576152c4615270565b5b828206905092915050565b60006152db82614085565b91506152e683614085565b92508282019050808211156152fe576152fd614c70565b5b9291505056fea26469706673582212206a64e2d61acfbac41472e4e0b85ce5f149c0f7aa4cfba3eeac92a97328fb143b64736f6c63430008110033",
  "devdoc": {
    "kind": "dev",
    "methods": {
      "owner()": {
        "details": "Returns the address of the current owner."
      },
      "renounceOwnership()": {
        "details": "Leaves the contract without owner. It will not be possible to call `onlyOwner` functions anymore. Can only be called by the current owner. NOTE: Renouncing ownership will leave the contract without an owner, thereby removing any functionality that is only available to the owner."
      },
      "supportsInterface(bytes4)": {
        "details": "See {IERC165-supportsInterface}."
      },
      "transferOwnership(address)": {
        "details": "Transfers ownership of the contract to a new account (`newOwner`). Can only be called by the current owner."
      }
    },
    "version": 1
  },
  "userdoc": {
    "kind": "user",
    "methods": {},
    "version": 1
  },
  "storageLayout": {
    "storage": [
      {
        "astId": 7,
        "contract": "contracts/CardBattle.sol:CardBattle",
        "label": "_owner",
        "offset": 0,
        "slot": "0",
        "type": "t_address"
      },
      {
        "astId": 123,
        "contract": "contracts/CardBattle.sol:CardBattle",
        "label": "_status",
        "offset": 0,
        "slot": "1",
        "type": "t_uint256"
      },
      {
        "astId": 2064,
        "contract": "contracts/CardBattle.sol:CardBattle",
        "label": "lastBattleId",
        "offset": 0,
        "slot": "2",
        "type": "t_uint256"
      },
      {
        "astId": 2066,
        "contract": "contracts/CardBattle.sol:CardBattle",
        "label": "lastMintedChar",
        "offset": 0,
        "slot": "3",
        "type": "t_uint256"
      },
      {
        "astId": 2115,
        "contract": "contracts/CardBattle.sol:CardBattle",
        "label": "waitingBattleIds",
        "offset": 0,
        "slot": "4",
        "type": "t_array(t_uint256)dyn_storage"
      },
      {
        "astId": 2120,
        "contract": "contracts/CardBattle.sol:CardBattle",
        "label": "players",
        "offset": 0,
        "slot": "5",
        "type": "t_mapping(t_address,t_struct(Player)2088_storage)"
      },
      {
        "astId": 2126,
        "contract": "contracts/CardBattle.sol:CardBattle",
        "label": "ownedTokens",
        "offset": 0,
        "slot": "6",
        "type": "t_mapping(t_address,t_mapping(t_uint256,t_uint256))"
      },
      {
        "astId": 2131,
        "contract": "contracts/CardBattle.sol:CardBattle",
        "label": "battles",
        "offset": 0,
        "slot": "7",
        "type": "t_mapping(t_uint256,t_struct(Battle)2104_storage)"
      },
      {
        "astId": 2136,
        "contract": "contracts/CardBattle.sol:CardBattle",
        "label": "tokens",
        "offset": 0,
        "slot": "8",
        "type": "t_mapping(t_uint256,t_struct(Token)2071_storage)"
      }
    ],
    "types": {
      "t_address": {
        "encoding": "inplace",
        "label": "address",
        "numberOfBytes": "20"
      },
      "t_array(t_enum(Choice)2112)2_storage": {
        "base": "t_enum(Choice)2112",
        "encoding": "inplace",
        "label": "enum CardBattle.Choice[2]",
        "numberOfBytes": "32"
      },
      "t_array(t_struct(Player)2088_storage)2_storage": {
        "base": "t_struct(Player)2088_storage",
        "encoding": "inplace",
        "label": "struct CardBattle.Player[2]",
        "numberOfBytes": "320"
      },
      "t_array(t_uint256)3_storage": {
        "base": "t_uint256",
        "encoding": "inplace",
        "label": "uint256[3]",
        "numberOfBytes": "96"
      },
      "t_array(t_uint256)dyn_storage": {
        "base": "t_uint256",
        "encoding": "dynamic_array",
        "label": "uint256[]",
        "numberOfBytes": "32"
      },
      "t_enum(BattleStatus)2108": {
        "encoding": "inplace",
        "label": "enum CardBattle.BattleStatus",
        "numberOfBytes": "1"
      },
      "t_enum(Choice)2112": {
        "encoding": "inplace",
        "label": "enum CardBattle.Choice",
        "numberOfBytes": "1"
      },
      "t_mapping(t_address,t_mapping(t_uint256,t_uint256))": {
        "encoding": "mapping",
        "key": "t_address",
        "label": "mapping(address => mapping(uint256 => uint256))",
        "numberOfBytes": "32",
        "value": "t_mapping(t_uint256,t_uint256)"
      },
      "t_mapping(t_address,t_struct(Player)2088_storage)": {
        "encoding": "mapping",
        "key": "t_address",
        "label": "mapping(address => struct CardBattle.Player)",
        "numberOfBytes": "32",
        "value": "t_struct(Player)2088_storage"
      },
      "t_mapping(t_uint256,t_struct(Battle)2104_storage)": {
        "encoding": "mapping",
        "key": "t_uint256",
        "label": "mapping(uint256 => struct CardBattle.Battle)",
        "numberOfBytes": "32",
        "value": "t_struct(Battle)2104_storage"
      },
      "t_mapping(t_uint256,t_struct(Token)2071_storage)": {
        "encoding": "mapping",
        "key": "t_uint256",
        "label": "mapping(uint256 => struct CardBattle.Token)",
        "numberOfBytes": "32",
        "value": "t_struct(Token)2071_storage"
      },
      "t_mapping(t_uint256,t_uint256)": {
        "encoding": "mapping",
        "key": "t_uint256",
        "label": "mapping(uint256 => uint256)",
        "numberOfBytes": "32",
        "value": "t_uint256"
      },
      "t_struct(Battle)2104_storage": {
        "encoding": "inplace",
        "label": "struct CardBattle.Battle",
        "members": [
          {
            "astId": 2093,
            "contract": "contracts/CardBattle.sol:CardBattle",
            "label": "playersInBattle",
            "offset": 0,
            "slot": "0",
            "type": "t_array(t_struct(Player)2088_storage)2_storage"
          },
          {
            "astId": 2095,
            "contract": "contracts/CardBattle.sol:CardBattle",
            "label": "winner",
            "offset": 0,
            "slot": "10",
            "type": "t_address"
          },
          {
            "astId": 2098,
            "contract": "contracts/CardBattle.sol:CardBattle",
            "label": "battleStatus",
            "offset": 20,
            "slot": "10",
            "type": "t_enum(BattleStatus)2108"
          },
          {
            "astId": 2103,
            "contract": "contracts/CardBattle.sol:CardBattle",
            "label": "moves",
            "offset": 0,
            "slot": "11",
            "type": "t_array(t_enum(Choice)2112)2_storage"
          }
        ],
        "numberOfBytes": "384"
      },
      "t_struct(Player)2088_storage": {
        "encoding": "inplace",
        "label": "struct CardBattle.Player",
        "members": [
          {
            "astId": 2073,
            "contract": "contracts/CardBattle.sol:CardBattle",
            "label": "playerAddr",
            "offset": 0,
            "slot": "0",
            "type": "t_address"
          },
          {
            "astId": 2075,
            "contract": "contracts/CardBattle.sol:CardBattle",
            "label": "health",
            "offset": 20,
            "slot": "0",
            "type": "t_uint8"
          },
          {
            "astId": 2077,
            "contract": "contracts/CardBattle.sol:CardBattle",
            "label": "energy",
            "offset": 21,
            "slot": "0",
            "type": "t_uint8"
          },
          {
            "astId": 2081,
            "contract": "contracts/CardBattle.sol:CardBattle",
            "label": "battleTokens",
            "offset": 0,
            "slot": "1",
            "type": "t_array(t_uint256)3_storage"
          },
          {
            "astId": 2083,
            "contract": "contracts/CardBattle.sol:CardBattle",
            "label": "battleAttack",
            "offset": 0,
            "slot": "4",
            "type": "t_uint8"
          },
          {
            "astId": 2085,
            "contract": "contracts/CardBattle.sol:CardBattle",
            "label": "battleDefense",
            "offset": 1,
            "slot": "4",
            "type": "t_uint8"
          },
          {
            "astId": 2087,
            "contract": "contracts/CardBattle.sol:CardBattle",
            "label": "battleMoveId",
            "offset": 2,
            "slot": "4",
            "type": "t_uint8"
          }
        ],
        "numberOfBytes": "160"
      },
      "t_struct(Token)2071_storage": {
        "encoding": "inplace",
        "label": "struct CardBattle.Token",
        "members": [
          {
            "astId": 2068,
            "contract": "contracts/CardBattle.sol:CardBattle",
            "label": "attack",
            "offset": 0,
            "slot": "0",
            "type": "t_uint8"
          },
          {
            "astId": 2070,
            "contract": "contracts/CardBattle.sol:CardBattle",
            "label": "defense",
            "offset": 1,
            "slot": "0",
            "type": "t_uint8"
          }
        ],
        "numberOfBytes": "32"
      },
      "t_uint256": {
        "encoding": "inplace",
        "label": "uint256",
        "numberOfBytes": "32"
      },
      "t_uint8": {
        "encoding": "inplace",
        "label": "uint8",
        "numberOfBytes": "1"
      }
    }
  }
}