{
  "address": "0x5FbDB2315678afecb367f032d93F642f64180aa3",
  "abi": [
    {
      "inputs": [],
      "stateMutability": "nonpayable",
      "type": "constructor"
    },
    {
      "anonymous": false,
      "inputs": [
        {
          "indexed": true,
          "internalType": "address",
          "name": "account",
          "type": "address"
        },
        {
          "indexed": true,
          "internalType": "address",
          "name": "operator",
          "type": "address"
        },
        {
          "indexed": false,
          "internalType": "bool",
          "name": "approved",
          "type": "bool"
        }
      ],
      "name": "ApprovalForAll",
      "type": "event"
    },
    {
      "anonymous": false,
      "inputs": [
        {
          "indexed": true,
          "internalType": "address",
          "name": "operator",
          "type": "address"
        },
        {
          "indexed": true,
          "internalType": "address",
          "name": "from",
          "type": "address"
        },
        {
          "indexed": true,
          "internalType": "address",
          "name": "to",
          "type": "address"
        },
        {
          "indexed": false,
          "internalType": "uint256[]",
          "name": "ids",
          "type": "uint256[]"
        },
        {
          "indexed": false,
          "internalType": "uint256[]",
          "name": "values",
          "type": "uint256[]"
        }
      ],
      "name": "TransferBatch",
      "type": "event"
    },
    {
      "anonymous": false,
      "inputs": [
        {
          "indexed": true,
          "internalType": "address",
          "name": "operator",
          "type": "address"
        },
        {
          "indexed": true,
          "internalType": "address",
          "name": "from",
          "type": "address"
        },
        {
          "indexed": true,
          "internalType": "address",
          "name": "to",
          "type": "address"
        },
        {
          "indexed": false,
          "internalType": "uint256",
          "name": "id",
          "type": "uint256"
        },
        {
          "indexed": false,
          "internalType": "uint256",
          "name": "value",
          "type": "uint256"
        }
      ],
      "name": "TransferSingle",
      "type": "event"
    },
    {
      "anonymous": false,
      "inputs": [
        {
          "indexed": false,
          "internalType": "string",
          "name": "value",
          "type": "string"
        },
        {
          "indexed": true,
          "internalType": "uint256",
          "name": "id",
          "type": "uint256"
        }
      ],
      "name": "URI",
      "type": "event"
    },
    {
      "inputs": [],
      "name": "Berserk",
      "outputs": [
        {
          "internalType": "uint256",
          "name": "",
          "type": "uint256"
        }
      ],
      "stateMutability": "view",
      "type": "function"
    },
    {
      "inputs": [],
      "name": "Bob",
      "outputs": [
        {
          "internalType": "uint256",
          "name": "",
          "type": "uint256"
        }
      ],
      "stateMutability": "view",
      "type": "function"
    },
    {
      "inputs": [],
      "name": "Charlie",
      "outputs": [
        {
          "internalType": "uint256",
          "name": "",
          "type": "uint256"
        }
      ],
      "stateMutability": "view",
      "type": "function"
    },
    {
      "inputs": [],
      "name": "ForceShield",
      "outputs": [
        {
          "internalType": "uint256",
          "name": "",
          "type": "uint256"
        }
      ],
      "stateMutability": "view",
      "type": "function"
    },
    {
      "inputs": [],
      "name": "Henley",
      "outputs": [
        {
          "internalType": "uint256",
          "name": "",
          "type": "uint256"
        }
      ],
      "stateMutability": "view",
      "type": "function"
    },
    {
      "inputs": [],
      "name": "Jack",
      "outputs": [
        {
          "internalType": "uint256",
          "name": "",
          "type": "uint256"
        }
      ],
      "stateMutability": "view",
      "type": "function"
    },
    {
      "inputs": [],
      "name": "Jeff",
      "outputs": [
        {
          "internalType": "uint256",
          "name": "",
          "type": "uint256"
        }
      ],
      "stateMutability": "view",
      "type": "function"
    },
    {
      "inputs": [],
      "name": "Sophie",
      "outputs": [
        {
          "internalType": "uint256",
          "name": "",
          "type": "uint256"
        }
      ],
      "stateMutability": "view",
      "type": "function"
    },
    {
      "inputs": [],
      "name": "Steve",
      "outputs": [
        {
          "internalType": "uint256",
          "name": "",
          "type": "uint256"
        }
      ],
      "stateMutability": "view",
      "type": "function"
    },
    {
      "inputs": [
        {
          "internalType": "address",
          "name": "account",
          "type": "address"
        },
        {
          "internalType": "uint256",
          "name": "id",
          "type": "uint256"
        }
      ],
      "name": "balanceOf",
      "outputs": [
        {
          "internalType": "uint256",
          "name": "",
          "type": "uint256"
        }
      ],
      "stateMutability": "view",
      "type": "function"
    },
    {
      "inputs": [
        {
          "internalType": "address[]",
          "name": "accounts",
          "type": "address[]"
        },
        {
          "internalType": "uint256[]",
          "name": "ids",
          "type": "uint256[]"
        }
      ],
      "name": "balanceOfBatch",
      "outputs": [
        {
          "internalType": "uint256[]",
          "name": "",
          "type": "uint256[]"
        }
      ],
      "stateMutability": "view",
      "type": "function"
    },
    {
      "inputs": [
        {
          "internalType": "address",
          "name": "account",
          "type": "address"
        },
        {
          "internalType": "uint256",
          "name": "id",
          "type": "uint256"
        },
        {
          "internalType": "uint256",
          "name": "amount",
          "type": "uint256"
        }
      ],
      "name": "burn",
      "outputs": [],
      "stateMutability": "nonpayable",
      "type": "function"
    },
    {
      "inputs": [
        {
          "internalType": "address",
          "name": "account",
          "type": "address"
        },
        {
          "internalType": "address",
          "name": "operator",
          "type": "address"
        }
      ],
      "name": "isApprovedForAll",
      "outputs": [
        {
          "internalType": "bool",
          "name": "",
          "type": "bool"
        }
      ],
      "stateMutability": "view",
      "type": "function"
    },
    {
      "inputs": [
        {
          "internalType": "address",
          "name": "account",
          "type": "address"
        },
        {
          "internalType": "uint256",
          "name": "id",
          "type": "uint256"
        },
        {
          "internalType": "uint256",
          "name": "amount",
          "type": "uint256"
        },
        {
          "internalType": "bytes",
          "name": "data",
          "type": "bytes"
        }
      ],
      "name": "mint",
      "outputs": [],
      "stateMutability": "nonpayable",
      "type": "function"
    },
    {
      "inputs": [
        {
          "internalType": "address",
          "name": "from",
          "type": "address"
        },
        {
          "internalType": "address",
          "name": "to",
          "type": "address"
        },
        {
          "internalType": "uint256[]",
          "name": "ids",
          "type": "uint256[]"
        },
        {
          "internalType": "uint256[]",
          "name": "amounts",
          "type": "uint256[]"
        },
        {
          "internalType": "bytes",
          "name": "data",
          "type": "bytes"
        }
      ],
      "name": "safeBatchTransferFrom",
      "outputs": [],
      "stateMutability": "nonpayable",
      "type": "function"
    },
    {
      "inputs": [
        {
          "internalType": "address",
          "name": "from",
          "type": "address"
        },
        {
          "internalType": "address",
          "name": "to",
          "type": "address"
        },
        {
          "internalType": "uint256",
          "name": "id",
          "type": "uint256"
        },
        {
          "internalType": "uint256",
          "name": "amount",
          "type": "uint256"
        },
        {
          "internalType": "bytes",
          "name": "data",
          "type": "bytes"
        }
      ],
      "name": "safeTransferFrom",
      "outputs": [],
      "stateMutability": "nonpayable",
      "type": "function"
    },
    {
      "inputs": [
        {
          "internalType": "address",
          "name": "operator",
          "type": "address"
        },
        {
          "internalType": "bool",
          "name": "approved",
          "type": "bool"
        }
      ],
      "name": "setApprovalForAll",
      "outputs": [],
      "stateMutability": "nonpayable",
      "type": "function"
    },
    {
      "inputs": [
        {
          "internalType": "bytes4",
          "name": "interfaceId",
          "type": "bytes4"
        }
      ],
      "name": "supportsInterface",
      "outputs": [
        {
          "internalType": "bool",
          "name": "",
          "type": "bool"
        }
      ],
      "stateMutability": "view",
      "type": "function"
    },
    {
      "inputs": [
        {
          "internalType": "uint256",
          "name": "",
          "type": "uint256"
        }
      ],
      "name": "uri",
      "outputs": [
        {
          "internalType": "string",
          "name": "",
          "type": "string"
        }
      ],
      "stateMutability": "view",
      "type": "function"
    }
  ],
  "transactionHash": "0x348f461b01b3dc599ed49288494589bfb928b9c9a2300f79295a589f4d47ac7a",
  "args": [],
  "numDeployments": 1,
  "solcInputHash": "22fed0f3fa33b71747f046d895d7d91a",
  "bytecode": "0x60806040523480156200001157600080fd5b506040518060600160405280603f815260200162003171603f91396200003d816200004460201b60201c565b50620003ba565b8060029081620000559190620002d3565b5050565b600081519050919050565b7f4e487b7100000000000000000000000000000000000000000000000000000000600052604160045260246000fd5b7f4e487b7100000000000000000000000000000000000000000000000000000000600052602260045260246000fd5b60006002820490506001821680620000db57607f821691505b602082108103620000f157620000f062000093565b5b50919050565b60008190508160005260206000209050919050565b60006020601f8301049050919050565b600082821b905092915050565b6000600883026200015b7fffffffffffffffffffffffffffffffffffffffffffffffffffffffffffffffff826200011c565b6200016786836200011c565b95508019841693508086168417925050509392505050565b6000819050919050565b6000819050919050565b6000620001b4620001ae620001a8846200017f565b62000189565b6200017f565b9050919050565b6000819050919050565b620001d08362000193565b620001e8620001df82620001bb565b84845462000129565b825550505050565b600090565b620001ff620001f0565b6200020c818484620001c5565b505050565b5b81811015620002345762000228600082620001f5565b60018101905062000212565b5050565b601f82111562000283576200024d81620000f7565b62000258846200010c565b8101602085101562000268578190505b6200028062000277856200010c565b83018262000211565b50505b505050565b600082821c905092915050565b6000620002a86000198460080262000288565b1980831691505092915050565b6000620002c3838362000295565b9150826002028217905092915050565b620002de8262000059565b67ffffffffffffffff811115620002fa57620002f962000064565b5b620003068254620000c2565b6200031382828562000238565b600060209050601f8311600181146200034b576000841562000336578287015190505b620003428582620002b5565b865550620003b2565b601f1984166200035b86620000f7565b60005b8281101562000385578489015182556001820191506020850194506020810190506200035e565b86831015620003a55784890151620003a1601f89168262000295565b8355505b6001600288020188555050505b505050505050565b612da780620003ca6000396000f3fe608060405234801561001057600080fd5b50600436106101205760003560e01c80636e56bc42116100ad578063bea5091411610071578063bea509141461030b578063e985e9c514610329578063eedd8f2914610359578063f242432a14610377578063f5298aca1461039357610120565b80636e56bc4214610279578063731133e914610297578063a0ac1323146102b3578063a22cb465146102d1578063a74095d0146102ed57610120565b806310e23137116100f457806310e23137146101d357806328955703146101f15780632eb2c2d61461020f5780634e1273f41461022b5780636d877f911461025b57610120565b8062fdd58e1461012557806301ffc9a714610155578063057d2c17146101855780630e89341c146101a3575b600080fd5b61013f600480360381019061013a91906119d4565b6103af565b60405161014c9190611a23565b60405180910390f35b61016f600480360381019061016a9190611a96565b610477565b60405161017c9190611ade565b60405180910390f35b61018d610559565b60405161019a9190611a23565b60405180910390f35b6101bd60048036038101906101b89190611af9565b61055e565b6040516101ca9190611bb6565b60405180910390f35b6101db6105f2565b6040516101e89190611a23565b60405180910390f35b6101f96105f7565b6040516102069190611a23565b60405180910390f35b61022960048036038101906102249190611dd5565b6105fc565b005b61024560048036038101906102409190611f67565b61069d565b604051610252919061209d565b60405180910390f35b6102636107b6565b6040516102709190611a23565b60405180910390f35b6102816107bb565b60405161028e9190611a23565b60405180910390f35b6102b160048036038101906102ac91906120bf565b6107c0565b005b6102bb6107d2565b6040516102c89190611a23565b60405180910390f35b6102eb60048036038101906102e6919061216e565b6107d7565b005b6102f56107ed565b6040516103029190611a23565b60405180910390f35b6103136107f2565b6040516103209190611a23565b60405180910390f35b610343600480360381019061033e91906121ae565b6107f7565b6040516103509190611ade565b60405180910390f35b61036161088b565b60405161036e9190611a23565b60405180910390f35b610391600480360381019061038c91906121ee565b610890565b005b6103ad60048036038101906103a89190612285565b610931565b005b60008073ffffffffffffffffffffffffffffffffffffffff168373ffffffffffffffffffffffffffffffffffffffff160361041f576040517f08c379a00000000000000000000000000000000000000000000000000000000081526004016104169061234a565b60405180910390fd5b60008083815260200190815260200160002060008473ffffffffffffffffffffffffffffffffffffffff1673ffffffffffffffffffffffffffffffffffffffff16815260200190815260200160002054905092915050565b60007fd9b67a26000000000000000000000000000000000000000000000000000000007bffffffffffffffffffffffffffffffffffffffffffffffffffffffff1916827bffffffffffffffffffffffffffffffffffffffffffffffffffffffff1916148061054257507f0e89341c000000000000000000000000000000000000000000000000000000007bffffffffffffffffffffffffffffffffffffffffffffffffffffffff1916827bffffffffffffffffffffffffffffffffffffffffffffffffffffffff1916145b80610552575061055182610941565b5b9050919050565b600481565b60606002805461056d90612399565b80601f016020809104026020016040519081016040528092919081815260200182805461059990612399565b80156105e65780601f106105bb576101008083540402835291602001916105e6565b820191906000526020600020905b8154815290600101906020018083116105c957829003601f168201915b50505050509050919050565b600981565b600381565b6106046109ab565b73ffffffffffffffffffffffffffffffffffffffff168573ffffffffffffffffffffffffffffffffffffffff16148061064a5750610649856106446109ab565b6107f7565b5b610689576040517f08c379a00000000000000000000000000000000000000000000000000000000081526004016106809061243c565b60405180910390fd5b61069685858585856109b3565b5050505050565b606081518351146106e3576040517f08c379a00000000000000000000000000000000000000000000000000000000081526004016106da906124ce565b60405180910390fd5b6000835167ffffffffffffffff811115610700576106ff611bdd565b5b60405190808252806020026020018201604052801561072e5781602001602082028036833780820191505090505b50905060005b84518110156107ab5761077b858281518110610753576107526124ee565b5b602002602001015185838151811061076e5761076d6124ee565b5b60200260200101516103af565b82828151811061078e5761078d6124ee565b5b602002602001018181525050806107a49061254c565b9050610734565b508091505092915050565b600581565b600681565b6107cc84848484610cd4565b50505050565b600181565b6107e96107e26109ab565b8383610e84565b5050565b600281565b600881565b6000600160008473ffffffffffffffffffffffffffffffffffffffff1673ffffffffffffffffffffffffffffffffffffffff16815260200190815260200160002060008373ffffffffffffffffffffffffffffffffffffffff1673ffffffffffffffffffffffffffffffffffffffff16815260200190815260200160002060009054906101000a900460ff16905092915050565b600781565b6108986109ab565b73ffffffffffffffffffffffffffffffffffffffff168573ffffffffffffffffffffffffffffffffffffffff1614806108de57506108dd856108d86109ab565b6107f7565b5b61091d576040517f08c379a00000000000000000000000000000000000000000000000000000000081526004016109149061243c565b60405180910390fd5b61092a8585858585610ff0565b5050505050565b61093c83838361128b565b505050565b60007f01ffc9a7000000000000000000000000000000000000000000000000000000007bffffffffffffffffffffffffffffffffffffffffffffffffffffffff1916827bffffffffffffffffffffffffffffffffffffffffffffffffffffffff1916149050919050565b600033905090565b81518351146109f7576040517f08c379a00000000000000000000000000000000000000000000000000000000081526004016109ee90612606565b60405180910390fd5b600073ffffffffffffffffffffffffffffffffffffffff168473ffffffffffffffffffffffffffffffffffffffff1603610a66576040517f08c379a0000000000000000000000000000000000000000000000000000000008152600401610a5d90612698565b60405180910390fd5b6000610a706109ab565b9050610a808187878787876114d1565b60005b8451811015610c31576000858281518110610aa157610aa06124ee565b5b602002602001015190506000858381518110610ac057610abf6124ee565b5b60200260200101519050600080600084815260200190815260200160002060008b73ffffffffffffffffffffffffffffffffffffffff1673ffffffffffffffffffffffffffffffffffffffff16815260200190815260200160002054905081811015610b61576040517f08c379a0000000000000000000000000000000000000000000000000000000008152600401610b589061272a565b60405180910390fd5b81810360008085815260200190815260200160002060008c73ffffffffffffffffffffffffffffffffffffffff1673ffffffffffffffffffffffffffffffffffffffff168152602001908152602001600020819055508160008085815260200190815260200160002060008b73ffffffffffffffffffffffffffffffffffffffff1673ffffffffffffffffffffffffffffffffffffffff1681526020019081526020016000206000828254610c16919061274a565b9250508190555050505080610c2a9061254c565b9050610a83565b508473ffffffffffffffffffffffffffffffffffffffff168673ffffffffffffffffffffffffffffffffffffffff168273ffffffffffffffffffffffffffffffffffffffff167f4a39dc06d4c0dbc64b70af90fd698a233a518aa5d07e595d983b8c0526c8f7fb8787604051610ca892919061277e565b60405180910390a4610cbe8187878787876114d9565b610ccc8187878787876114e1565b505050505050565b600073ffffffffffffffffffffffffffffffffffffffff168473ffffffffffffffffffffffffffffffffffffffff1603610d43576040517f08c379a0000000000000000000000000000000000000000000000000000000008152600401610d3a90612827565b60405180910390fd5b6000610d4d6109ab565b90506000610d5a856116b8565b90506000610d67856116b8565b9050610d78836000898585896114d1565b8460008088815260200190815260200160002060008973ffffffffffffffffffffffffffffffffffffffff1673ffffffffffffffffffffffffffffffffffffffff1681526020019081526020016000206000828254610dd7919061274a565b925050819055508673ffffffffffffffffffffffffffffffffffffffff16600073ffffffffffffffffffffffffffffffffffffffff168473ffffffffffffffffffffffffffffffffffffffff167fc3d58168c5ae7397731d063d5bbf3d657854427343f4c083240f7aacaa2d0f628989604051610e55929190612847565b60405180910390a4610e6c836000898585896114d9565b610e7b83600089898989611732565b50505050505050565b8173ffffffffffffffffffffffffffffffffffffffff168373ffffffffffffffffffffffffffffffffffffffff1603610ef2576040517f08c379a0000000000000000000000000000000000000000000000000000000008152600401610ee9906128e2565b60405180910390fd5b80600160008573ffffffffffffffffffffffffffffffffffffffff1673ffffffffffffffffffffffffffffffffffffffff16815260200190815260200160002060008473ffffffffffffffffffffffffffffffffffffffff1673ffffffffffffffffffffffffffffffffffffffff16815260200190815260200160002060006101000a81548160ff0219169083151502179055508173ffffffffffffffffffffffffffffffffffffffff168373ffffffffffffffffffffffffffffffffffffffff167f17307eab39ab6107e8899845ad3d59bd9653f200f220920489ca2b5937696c3183604051610fe39190611ade565b60405180910390a3505050565b600073ffffffffffffffffffffffffffffffffffffffff168473ffffffffffffffffffffffffffffffffffffffff160361105f576040517f08c379a000000000000000000000000000000000000000000000000000000000815260040161105690612698565b60405180910390fd5b60006110696109ab565b90506000611076856116b8565b90506000611083856116b8565b90506110938389898585896114d1565b600080600088815260200190815260200160002060008a73ffffffffffffffffffffffffffffffffffffffff1673ffffffffffffffffffffffffffffffffffffffff1681526020019081526020016000205490508581101561112a576040517f08c379a00000000000000000000000000000000000000000000000000000000081526004016111219061272a565b60405180910390fd5b85810360008089815260200190815260200160002060008b73ffffffffffffffffffffffffffffffffffffffff1673ffffffffffffffffffffffffffffffffffffffff168152602001908152602001600020819055508560008089815260200190815260200160002060008a73ffffffffffffffffffffffffffffffffffffffff1673ffffffffffffffffffffffffffffffffffffffff16815260200190815260200160002060008282546111df919061274a565b925050819055508773ffffffffffffffffffffffffffffffffffffffff168973ffffffffffffffffffffffffffffffffffffffff168573ffffffffffffffffffffffffffffffffffffffff167fc3d58168c5ae7397731d063d5bbf3d657854427343f4c083240f7aacaa2d0f628a8a60405161125c929190612847565b60405180910390a4611272848a8a86868a6114d9565b611280848a8a8a8a8a611732565b505050505050505050565b600073ffffffffffffffffffffffffffffffffffffffff168373ffffffffffffffffffffffffffffffffffffffff16036112fa576040517f08c379a00000000000000000000000000000000000000000000000000000000081526004016112f190612974565b60405180910390fd5b60006113046109ab565b90506000611311846116b8565b9050600061131e846116b8565b905061133e838760008585604051806020016040528060008152506114d1565b600080600087815260200190815260200160002060008873ffffffffffffffffffffffffffffffffffffffff1673ffffffffffffffffffffffffffffffffffffffff168152602001908152602001600020549050848110156113d5576040517f08c379a00000000000000000000000000000000000000000000000000000000081526004016113cc90612a06565b60405180910390fd5b84810360008088815260200190815260200160002060008973ffffffffffffffffffffffffffffffffffffffff1673ffffffffffffffffffffffffffffffffffffffff16815260200190815260200160002081905550600073ffffffffffffffffffffffffffffffffffffffff168773ffffffffffffffffffffffffffffffffffffffff168573ffffffffffffffffffffffffffffffffffffffff167fc3d58168c5ae7397731d063d5bbf3d657854427343f4c083240f7aacaa2d0f6289896040516114a2929190612847565b60405180910390a46114c8848860008686604051806020016040528060008152506114d9565b50505050505050565b505050505050565b505050505050565b6115008473ffffffffffffffffffffffffffffffffffffffff16611909565b156116b0578373ffffffffffffffffffffffffffffffffffffffff1663bc197c8187878686866040518663ffffffff1660e01b8152600401611546959493929190612a8a565b6020604051808303816000875af192505050801561158257506040513d601f19601f8201168201806040525081019061157f9190612b07565b60015b6116275761158e612b41565b806308c379a0036115ea57506115a2612b63565b806115ad57506115ec565b806040517f08c379a00000000000000000000000000000000000000000000000000000000081526004016115e19190611bb6565b60405180910390fd5b505b6040517f08c379a000000000000000000000000000000000000000000000000000000000815260040161161e90612c65565b60405180910390fd5b63bc197c8160e01b7bffffffffffffffffffffffffffffffffffffffffffffffffffffffff1916817bffffffffffffffffffffffffffffffffffffffffffffffffffffffff1916146116ae576040517f08c379a00000000000000000000000000000000000000000000000000000000081526004016116a590612cf7565b60405180910390fd5b505b505050505050565b60606000600167ffffffffffffffff8111156116d7576116d6611bdd565b5b6040519080825280602002602001820160405280156117055781602001602082028036833780820191505090505b509050828160008151811061171d5761171c6124ee565b5b60200260200101818152505080915050919050565b6117518473ffffffffffffffffffffffffffffffffffffffff16611909565b15611901578373ffffffffffffffffffffffffffffffffffffffff1663f23a6e6187878686866040518663ffffffff1660e01b8152600401611797959493929190612d17565b6020604051808303816000875af19250505080156117d357506040513d601f19601f820116820180604052508101906117d09190612b07565b60015b611878576117df612b41565b806308c379a00361183b57506117f3612b63565b806117fe575061183d565b806040517f08c379a00000000000000000000000000000000000000000000000000000000081526004016118329190611bb6565b60405180910390fd5b505b6040517f08c379a000000000000000000000000000000000000000000000000000000000815260040161186f90612c65565b60405180910390fd5b63f23a6e6160e01b7bffffffffffffffffffffffffffffffffffffffffffffffffffffffff1916817bffffffffffffffffffffffffffffffffffffffffffffffffffffffff1916146118ff576040517f08c379a00000000000000000000000000000000000000000000000000000000081526004016118f690612cf7565b60405180910390fd5b505b505050505050565b6000808273ffffffffffffffffffffffffffffffffffffffff163b119050919050565b6000604051905090565b600080fd5b600080fd5b600073ffffffffffffffffffffffffffffffffffffffff82169050919050565b600061196b82611940565b9050919050565b61197b81611960565b811461198657600080fd5b50565b60008135905061199881611972565b92915050565b6000819050919050565b6119b18161199e565b81146119bc57600080fd5b50565b6000813590506119ce816119a8565b92915050565b600080604083850312156119eb576119ea611936565b5b60006119f985828601611989565b9250506020611a0a858286016119bf565b9150509250929050565b611a1d8161199e565b82525050565b6000602082019050611a386000830184611a14565b92915050565b60007fffffffff0000000000000000000000000000000000000000000000000000000082169050919050565b611a7381611a3e565b8114611a7e57600080fd5b50565b600081359050611a9081611a6a565b92915050565b600060208284031215611aac57611aab611936565b5b6000611aba84828501611a81565b91505092915050565b60008115159050919050565b611ad881611ac3565b82525050565b6000602082019050611af36000830184611acf565b92915050565b600060208284031215611b0f57611b0e611936565b5b6000611b1d848285016119bf565b91505092915050565b600081519050919050565b600082825260208201905092915050565b60005b83811015611b60578082015181840152602081019050611b45565b60008484015250505050565b6000601f19601f8301169050919050565b6000611b8882611b26565b611b928185611b31565b9350611ba2818560208601611b42565b611bab81611b6c565b840191505092915050565b60006020820190508181036000830152611bd08184611b7d565b905092915050565b600080fd5b7f4e487b7100000000000000000000000000000000000000000000000000000000600052604160045260246000fd5b611c1582611b6c565b810181811067ffffffffffffffff82111715611c3457611c33611bdd565b5b80604052505050565b6000611c4761192c565b9050611c538282611c0c565b919050565b600067ffffffffffffffff821115611c7357611c72611bdd565b5b602082029050602081019050919050565b600080fd5b6000611c9c611c9784611c58565b611c3d565b90508083825260208201905060208402830185811115611cbf57611cbe611c84565b5b835b81811015611ce85780611cd488826119bf565b845260208401935050602081019050611cc1565b5050509392505050565b600082601f830112611d0757611d06611bd8565b5b8135611d17848260208601611c89565b91505092915050565b600080fd5b600067ffffffffffffffff821115611d4057611d3f611bdd565b5b611d4982611b6c565b9050602081019050919050565b82818337600083830152505050565b6000611d78611d7384611d25565b611c3d565b905082815260208101848484011115611d9457611d93611d20565b5b611d9f848285611d56565b509392505050565b600082601f830112611dbc57611dbb611bd8565b5b8135611dcc848260208601611d65565b91505092915050565b600080600080600060a08688031215611df157611df0611936565b5b6000611dff88828901611989565b9550506020611e1088828901611989565b945050604086013567ffffffffffffffff811115611e3157611e3061193b565b5b611e3d88828901611cf2565b935050606086013567ffffffffffffffff811115611e5e57611e5d61193b565b5b611e6a88828901611cf2565b925050608086013567ffffffffffffffff811115611e8b57611e8a61193b565b5b611e9788828901611da7565b9150509295509295909350565b600067ffffffffffffffff821115611ebf57611ebe611bdd565b5b602082029050602081019050919050565b6000611ee3611ede84611ea4565b611c3d565b90508083825260208201905060208402830185811115611f0657611f05611c84565b5b835b81811015611f2f5780611f1b8882611989565b845260208401935050602081019050611f08565b5050509392505050565b600082601f830112611f4e57611f4d611bd8565b5b8135611f5e848260208601611ed0565b91505092915050565b60008060408385031215611f7e57611f7d611936565b5b600083013567ffffffffffffffff811115611f9c57611f9b61193b565b5b611fa885828601611f39565b925050602083013567ffffffffffffffff811115611fc957611fc861193b565b5b611fd585828601611cf2565b9150509250929050565b600081519050919050565b600082825260208201905092915050565b6000819050602082019050919050565b6120148161199e565b82525050565b6000612026838361200b565b60208301905092915050565b6000602082019050919050565b600061204a82611fdf565b6120548185611fea565b935061205f83611ffb565b8060005b83811015612090578151612077888261201a565b975061208283612032565b925050600181019050612063565b5085935050505092915050565b600060208201905081810360008301526120b7818461203f565b905092915050565b600080600080608085870312156120d9576120d8611936565b5b60006120e787828801611989565b94505060206120f8878288016119bf565b9350506040612109878288016119bf565b925050606085013567ffffffffffffffff81111561212a5761212961193b565b5b61213687828801611da7565b91505092959194509250565b61214b81611ac3565b811461215657600080fd5b50565b60008135905061216881612142565b92915050565b6000806040838503121561218557612184611936565b5b600061219385828601611989565b92505060206121a485828601612159565b9150509250929050565b600080604083850312156121c5576121c4611936565b5b60006121d385828601611989565b92505060206121e485828601611989565b9150509250929050565b600080600080600060a0868803121561220a57612209611936565b5b600061221888828901611989565b955050602061222988828901611989565b945050604061223a888289016119bf565b935050606061224b888289016119bf565b925050608086013567ffffffffffffffff81111561226c5761226b61193b565b5b61227888828901611da7565b9150509295509295909350565b60008060006060848603121561229e5761229d611936565b5b60006122ac86828701611989565b93505060206122bd868287016119bf565b92505060406122ce868287016119bf565b9150509250925092565b7f455243313135353a2061646472657373207a65726f206973206e6f742061207660008201527f616c6964206f776e657200000000000000000000000000000000000000000000602082015250565b6000612334602a83611b31565b915061233f826122d8565b604082019050919050565b6000602082019050818103600083015261236381612327565b9050919050565b7f4e487b7100000000000000000000000000000000000000000000000000000000600052602260045260246000fd5b600060028204905060018216806123b157607f821691505b6020821081036123c4576123c361236a565b5b50919050565b7f455243313135353a2063616c6c6572206973206e6f7420746f6b656e206f776e60008201527f6572206f7220617070726f766564000000000000000000000000000000000000602082015250565b6000612426602e83611b31565b9150612431826123ca565b604082019050919050565b6000602082019050818103600083015261245581612419565b9050919050565b7f455243313135353a206163636f756e747320616e6420696473206c656e67746860008201527f206d69736d617463680000000000000000000000000000000000000000000000602082015250565b60006124b8602983611b31565b91506124c38261245c565b604082019050919050565b600060208201905081810360008301526124e7816124ab565b9050919050565b7f4e487b7100000000000000000000000000000000000000000000000000000000600052603260045260246000fd5b7f4e487b7100000000000000000000000000000000000000000000000000000000600052601160045260246000fd5b60006125578261199e565b91507fffffffffffffffffffffffffffffffffffffffffffffffffffffffffffffffff82036125895761258861251d565b5b600182019050919050565b7f455243313135353a2069647320616e6420616d6f756e7473206c656e6774682060008201527f6d69736d61746368000000000000000000000000000000000000000000000000602082015250565b60006125f0602883611b31565b91506125fb82612594565b604082019050919050565b6000602082019050818103600083015261261f816125e3565b9050919050565b7f455243313135353a207472616e7366657220746f20746865207a65726f20616460008201527f6472657373000000000000000000000000000000000000000000000000000000602082015250565b6000612682602583611b31565b915061268d82612626565b604082019050919050565b600060208201905081810360008301526126b181612675565b9050919050565b7f455243313135353a20696e73756666696369656e742062616c616e636520666f60008201527f72207472616e7366657200000000000000000000000000000000000000000000602082015250565b6000612714602a83611b31565b915061271f826126b8565b604082019050919050565b6000602082019050818103600083015261274381612707565b9050919050565b60006127558261199e565b91506127608361199e565b92508282019050808211156127785761277761251d565b5b92915050565b60006040820190508181036000830152612798818561203f565b905081810360208301526127ac818461203f565b90509392505050565b7f455243313135353a206d696e7420746f20746865207a65726f2061646472657360008201527f7300000000000000000000000000000000000000000000000000000000000000602082015250565b6000612811602183611b31565b915061281c826127b5565b604082019050919050565b6000602082019050818103600083015261284081612804565b9050919050565b600060408201905061285c6000830185611a14565b6128696020830184611a14565b9392505050565b7f455243313135353a2073657474696e6720617070726f76616c2073746174757360008201527f20666f722073656c660000000000000000000000000000000000000000000000602082015250565b60006128cc602983611b31565b91506128d782612870565b604082019050919050565b600060208201905081810360008301526128fb816128bf565b9050919050565b7f455243313135353a206275726e2066726f6d20746865207a65726f206164647260008201527f6573730000000000000000000000000000000000000000000000000000000000602082015250565b600061295e602383611b31565b915061296982612902565b604082019050919050565b6000602082019050818103600083015261298d81612951565b9050919050565b7f455243313135353a206275726e20616d6f756e7420657863656564732062616c60008201527f616e636500000000000000000000000000000000000000000000000000000000602082015250565b60006129f0602483611b31565b91506129fb82612994565b604082019050919050565b60006020820190508181036000830152612a1f816129e3565b9050919050565b612a2f81611960565b82525050565b600081519050919050565b600082825260208201905092915050565b6000612a5c82612a35565b612a668185612a40565b9350612a76818560208601611b42565b612a7f81611b6c565b840191505092915050565b600060a082019050612a9f6000830188612a26565b612aac6020830187612a26565b8181036040830152612abe818661203f565b90508181036060830152612ad2818561203f565b90508181036080830152612ae68184612a51565b90509695505050505050565b600081519050612b0181611a6a565b92915050565b600060208284031215612b1d57612b1c611936565b5b6000612b2b84828501612af2565b91505092915050565b60008160e01c9050919050565b600060033d1115612b605760046000803e612b5d600051612b34565b90505b90565b600060443d10612bf057612b7561192c565b60043d036004823e80513d602482011167ffffffffffffffff82111715612b9d575050612bf0565b808201805167ffffffffffffffff811115612bbb5750505050612bf0565b80602083010160043d038501811115612bd8575050505050612bf0565b612be782602001850186611c0c565b82955050505050505b90565b7f455243313135353a207472616e7366657220746f206e6f6e2d4552433131353560008201527f526563656976657220696d706c656d656e746572000000000000000000000000602082015250565b6000612c4f603483611b31565b9150612c5a82612bf3565b604082019050919050565b60006020820190508181036000830152612c7e81612c42565b9050919050565b7f455243313135353a204552433131353552656365697665722072656a6563746560008201527f6420746f6b656e73000000000000000000000000000000000000000000000000602082015250565b6000612ce1602883611b31565b9150612cec82612c85565b604082019050919050565b60006020820190508181036000830152612d1081612cd4565b9050919050565b600060a082019050612d2c6000830188612a26565b612d396020830187612a26565b612d466040830186611a14565b612d536060830185611a14565b8181036080830152612d658184612a51565b9050969550505050505056fea26469706673582212200536e8a22017f60b2d2908259d2afb1965ffb39a37d43370858007cbcf6cac7c64736f6c63430008110033697066733a2f2f516d644241415735414a385976327a795a596565513162645955734e51446a787073544b74334d666d6e486877672f7b69647d2e6a736f6e",
  "devdoc": {
    "kind": "dev",
    "methods": {
      "balanceOf(address,uint256)": {
        "details": "See {IERC1155-balanceOf}. Requirements: - `account` cannot be the zero address."
      },
      "balanceOfBatch(address[],uint256[])": {
        "details": "See {IERC1155-balanceOfBatch}. Requirements: - `accounts` and `ids` must have the same length."
      },
      "isApprovedForAll(address,address)": {
        "details": "See {IERC1155-isApprovedForAll}."
      },
      "safeBatchTransferFrom(address,address,uint256[],uint256[],bytes)": {
        "details": "See {IERC1155-safeBatchTransferFrom}."
      },
      "safeTransferFrom(address,address,uint256,uint256,bytes)": {
        "details": "See {IERC1155-safeTransferFrom}."
      },
      "setApprovalForAll(address,bool)": {
        "details": "See {IERC1155-setApprovalForAll}."
      },
      "supportsInterface(bytes4)": {
        "details": "See {IERC165-supportsInterface}."
      },
      "uri(uint256)": {
        "details": "See {IERC1155MetadataURI-uri}. This implementation returns the same URI for *all* token types. It relies on the token type ID substitution mechanism https://eips.ethereum.org/EIPS/eip-1155#metadata[defined in the EIP]. Clients calling this function must replace the `\\{id\\}` substring with the actual token type ID."
      }
    },
    "version": 1
  },
  "userdoc": {
    "kind": "user",
    "methods": {},
    "version": 1
  },
  "storageLayout": {
    "storage": [
      {
        "astId": 192,
        "contract": "contracts/GameTokens.sol:GameTokens",
        "label": "_balances",
        "offset": 0,
        "slot": "0",
        "type": "t_mapping(t_uint256,t_mapping(t_address,t_uint256))"
      },
      {
        "astId": 198,
        "contract": "contracts/GameTokens.sol:GameTokens",
        "label": "_operatorApprovals",
        "offset": 0,
        "slot": "1",
        "type": "t_mapping(t_address,t_mapping(t_address,t_bool))"
      },
      {
        "astId": 200,
        "contract": "contracts/GameTokens.sol:GameTokens",
        "label": "_uri",
        "offset": 0,
        "slot": "2",
        "type": "t_string_storage"
      }
    ],
    "types": {
      "t_address": {
        "encoding": "inplace",
        "label": "address",
        "numberOfBytes": "20"
      },
      "t_bool": {
        "encoding": "inplace",
        "label": "bool",
        "numberOfBytes": "1"
      },
      "t_mapping(t_address,t_bool)": {
        "encoding": "mapping",
        "key": "t_address",
        "label": "mapping(address => bool)",
        "numberOfBytes": "32",
        "value": "t_bool"
      },
      "t_mapping(t_address,t_mapping(t_address,t_bool))": {
        "encoding": "mapping",
        "key": "t_address",
        "label": "mapping(address => mapping(address => bool))",
        "numberOfBytes": "32",
        "value": "t_mapping(t_address,t_bool)"
      },
      "t_mapping(t_address,t_uint256)": {
        "encoding": "mapping",
        "key": "t_address",
        "label": "mapping(address => uint256)",
        "numberOfBytes": "32",
        "value": "t_uint256"
      },
      "t_mapping(t_uint256,t_mapping(t_address,t_uint256))": {
        "encoding": "mapping",
        "key": "t_uint256",
        "label": "mapping(uint256 => mapping(address => uint256))",
        "numberOfBytes": "32",
        "value": "t_mapping(t_address,t_uint256)"
      },
      "t_string_storage": {
        "encoding": "bytes",
        "label": "string",
        "numberOfBytes": "32"
      },
      "t_uint256": {
        "encoding": "inplace",
        "label": "uint256",
        "numberOfBytes": "32"
      }
    }
  }
}